:020000041005E5
:10100000006000201D8E05101B810510655605101F
:10101000AA5555AA45554C420000000000000000AA
:101020000000000000000000000000008DA8051076
:101030000000000000000000A586051021B2051088
:10104000C93A0510018205100000000000000000F0
:101050002DB6051099A705108D20051081B7051034
:101060000000000000000000000000000000000080
:101070000000000047150510695605106756051059
:10108000000000009B7C05109D7C05109F7C0510D6
:10109000A17C05103D8E051031820510DD2505105F
:1010A0000000000000000000000000000000000040
:1010B0000000000000000000000000000000000030
:1010C000EFF31482EFF309811C4880F31488BFF317
:1010D0006F8FF0B543464C4655465E466746F8B4BA
:1010E000174CEFF30883236006B4164C2068164CA7
:1010F0002060164C2068164C2060164C2068164C58
:101100002060164C276800202060BFF34F8F30BF4F
:1011100027600B4C246884F3088882B003BCF8BCB9
:101120009846A146AA46B346BC46F0BC04BC80F330
:10113000098881F31488BFF36F8F10470000000007
:101140000800002004ED00E06403002024ED00E02E
:101150006803002000E200E06C030020080020404B
:101160000348854600F0B2F90048004729030610FD
:101170000060002030B50B460146002020220124EB
:1011800009E00D46D5409D4205D31D469540491BBB
:101190002546954040191546521E002DF1DC30BD04
:1011A00010B5441A0346944209D28318891803E003
:1011B000491E0C785B1E1C70521EF9D210BD0C46E5
:1011C0000443A40703D009E010C9121F10C3042A66
:1011D000FAD203E00C781C70491C5B1C521EF9D239
:1011E00010BDD2B201E00270401C491EFBD2704714
:1011F0000022F6E710B513460A4604461946FFF7E3
:10120000F0FF204610BD30B504460020034600E044
:101210005B1C934203D2E05CCD5C401BF8D030BD38
:101220000321001D401E037812021A43491EF9D5FE
:1012300010467047F8B502464A40D40F42004B00B2
:1012400052085B089A4202D20246084611464A00FA
:1012500023D0C30D4A00DDB2120EAD1A202D35DAAF
:1012600049020126490AF6058A19002C00D052428B
:1012700020214F1B1146B9402A411018C20D9A4235
:1012800021D0002C17D0012D08DCDA05801AD20FEE
:101290008019D207DBB200F0E0F8F8BDDA05801A59
:1012A000012340001B06C01880185A428018CA0F3C
:1012B0001043490007E04908C2071143DA05801AC4
:1012C00080194008801800F0C0F8F8BD61000122C4
:1012D000511A001BF7E70122D2075140AAE7012269
:1012E000D2075040A6E7024670B54A40D30FDB074D
:1012F00040002DD04A002AD0010E140E0002120226
:101300000919400A520A8418E50104465443000AA8
:10131000120A2E045043A4194219200CC543AA18DE
:10132000120C0125AD03521C521912047F392404FA
:1013300000D0521C104301D44000491EC2B20C061A
:10134000C0092018401C4008802A02D003E0002079
:1013500070BD40084000002900DA0020184370BD2D
:1013600070B502464A40D50F40004A00ED074008DC
:101370005208002814D0002A12D0C40DD30D410207
:101380000120C0055202490A520AE41A091812182B
:101390007D34914201D3641C00E04900002C01DA45
:1013A000002070BD0023914201D3891A03434008F5
:1013B00049000028F7D100290AD0914202D1012129
:1013C000C90705E0914201D2012101E00121C94391
:1013D000E005C018401900F038F870BD420005D093
:1013E0004200120E52428A4201DB00207047C905BA
:1013F00008187047C217C10F504010B54018CA07EF
:101400009623002100F029F810BD10B50022962384
:10141000114600F022F810BDC20F41004002012326
:10142000400ADB05D207090EC0187F2901DA002027
:101430007047962903DC9623591AC84001E0963973
:101440008840002AF4D040427047002904DA401C4A
:10145000490001D140084000704770B40024050CD9
:1014600005D11024000402D1002921D01124050E39
:1014700001D100020834050F01D10001241D850FA0
:1014800001D18000A41C002801DB4000641C00295D
:1014900008D020252E1B0D46F540A14000D001218B
:1014A0002943084301061B1B000ADB1D02D500204F
:1014B00070BC7047DB05181880180029F8DA401C4A
:1014C0004900F5D170BC400840007047064C01252A
:1014D000064E05E0E36807CC2B430C3C98471034DC
:1014E000B442F7D3FFF740FE0427061094270610F6
:1014F00070B58C180578401C6B075B0F01D1037821
:10150000401C2A1106D10278401C03E006780E70B8
:10151000401C491C5B1EF9D12B0705D40023521E29
:101520000DD40B70491CFAE70378401CCB1A921CAF
:1015300003E01D780D70491C5B1C521EF9D5A142B9
:10154000D8D3002070BD70473EB5154C20780025DB
:10155000002802D009F070FD25706078002818D0AE
:101560006570E188012003F06CFF002801D00120A4
:101570006070A06800280CD0002009F086FB684647
:1015800003F060FE002802D1684600F089F803F0FD
:101590005FFEA078012802D1A57001F0C5FE3EBD16
:1015A000840300207FB505469868012202739A687B
:1015B0001C4651739868022202A90E3006F030FED4
:1015C000A16805200D74E0807FBD70B506460888CF
:1015D0001D460C46001D81B213460222304606F01D
:1015E00087FF21882B46891C2180091D89B2022290
:1015F000304606F07DFF2088801C208070BDFEB53F
:1016000000240E462746056845E028680290A96830
:10161000022230460D3106F003FE3088B84209D070
:1016200087B2384602F028FF014601AA384603F087
:101630009FFD019CA968022268460F3106F0F0FD6B
:10164000E888401F81B22220005D002806D00128D2
:101650000BD0002811D0012814D01BE0E08B6A4683
:101660001288401E904206D307E0208C6A461288FA
:10167000401E904206D20720FEBD6846008808182A
:10168000E18B03E0684600880818218C884201D964
:101690000D20FEBD029D002DB7D100203080FEBD83
:1016A00000B5818887B049426A46117409125174A5
:1016B00001789174018801230912D174017A494299
:1016C00011750089062140420012507500200190DA
:1016D00004AA074800910392029182880188054874
:1016E00000880AF0C5FF002800D0472007B000BDE1
:1016F0007803002088030020FFB5C8880025401E1D
:1017000083B00E4687B2012427E0B0680222083079
:1017100001196846091D06F083FD6846008802F03D
:10172000ABFE01001DD068460A8D0088824212D0AF
:1017300001AA03F01DFD00280DD101992620405C6F
:10174000400708D506986A00101802221C3106F0DE
:1017500067FD6D1CADB2A41CA4B2BC42D5D30C98DD
:10176000058007B0F0BDFFB5074683B000200090AC
:101770000D9802F081FE054606980C300190002D70
:1017800026D00837BD4223D0288D0E9988421FD815
:101790000D99884213D30E99884210D82946022207
:1017A0002A31019806F03CFD10220C99069806F0AB
:1017B00033FD002809D0298D0E98814208D02E468D
:1017C0002C6A2036B442DDD03EE00598002101802D
:1017D00007B0F0BDA08B0D99884234D30E99884292
:1017E00034D8204620300290C078012808D0204606
:1017F000083010220C9906F00FFD002808D022E0D6
:10180000214602220831019806F00AFD0698F0E709
:1018100002988079400716D50098002801D1E08B06
:101820000090E18B814211D105980222008841008D
:101830000498081821461C3106F0F2FC0598059919
:101840000088401C08802468B442C3D12D6899E701
:1018500006480021026805204002101801734173F8
:1018600003218173C173002070470000E80300204A
:1018700070B50D4D044611212868C9014018902605
:1018800001231A46C06F31460AF0A6FB010003D0BF
:1018900030464C600AF08CFB05202968400209188C
:1018A000087B401C087370BDE803002010B5044697
:1018B00000202082A074A168A1616161206020469F
:1018C00004F07CFF452801D0412010BDA0880321F1
:1018D0000CF046FD04460DF017FA002812D072B63F
:1018E0000948012201684F20400109184879A240A7
:1018F0001043487162B600200FF0A4F9002801D00F
:101900000BF088FB002010BDE803002070B5C17CFF
:101910000E4D4906490EC174044611212868C901BB
:101920004018902601230022C06F31460AF054FB74
:10193000010003D030464C600AF03AFB05202968CC
:1019400040020918487B401C487370BDE803002022
:10195000F0B58BB01B256A461576C5265676D5247C
:101960009476A527D7760221117700205077B420EE
:1019700090779A20D077E12008AA1070112050703B
:101980003A209070CF20D070802010716E2050715E
:1019900036209071D171102206A9414806F040FC12
:1019A000404800904048012203783D4902200AF057
:1019B000FEFC002870D1684605764676D5218176F2
:1019C000A521C1760227077700244477FC2181777F
:1019D0008F21C177E12108A80170112141704A21AE
:1019E0008170CF21C170A0210171782141713E2108
:1019F0008171E221C1712A48102206A9103006F037
:101A00000FFC28491020891C059103900090244A5E
:101A10002448029404940194012310320221008886
:101A20000AF07EFC002837D169460D764E76D52027
:101A30008876A520C8760F774C7736208877AC203B
:101A4000C877E12008A90870112048704B208870E1
:101A5000CF20C870802008714D710A208871342011
:101A6000C8710F48102206A9103006F0D9FB0D49A5
:101A70001020091D0390042205911220029200906B
:101A8000074A084804940194062310320221008872
:101A90000AF046FC002800D047200BB0F0BD000043
:101AA0000C040020780300209C030020F0B591B0C6
:101AB0001B2508AA1571C5205071D5209071A52746
:101AC000D7710220107200245472D02090728221AB
:101AD000D172E22010731120507377209073E426A6
:101AE000D673402010741A20507491744220D07420
:101AF000102209A96F4806F093FB6F4800906F48C9
:101B0000012243786B4902200AF051FC00287DD164
:101B10001B2108A80171C5214171D5218171A52121
:101B2000C171022505724472E3218172A921C1723B
:101B3000E22101731121417377218173E421C17383
:101B400020210174552141742E218174A321C17477
:101B50005848102209A9103006F062FB564900953A
:101B6000891C554F10260420524A059104940223E3
:101B7000039601940290BF1F10321946F8880AF0AC
:101B8000CFFB0028C3D10E2108A80175611E417545
:101B90004B496846C18608A804764476210A8176B6
:101BA000484968468187434802220FA9203006F041
:101BB00037FB10A8102108900691012007260594F4
:101BC00007940DA901963B4B009603940291049053
:101BD000024620333989F8880AF0C1FB002866D113
:101BE0001B2108A80171C5214171D5218171A52151
:101BF000C171057244720B2181728421C172E2218C
:101C00000173112141738B21817300E04FE0E421C6
:101C1000C17380210174C421417420218174CD21BC
:101C2000C1742448102209A9103006F0F9FA3A4686
:101C30000A32009504210592102002911D4A049455
:101C400001940390032310320221F8880AF068FB04
:101C500000282CD10F2008A90875601F48754F2057
:101C6000C0016946C88608A90C764C76200A887699
:101C70001448694688870F4802220FA9203006F0D1
:101C8000CFFA10A81021089006910120059407941E
:101C90000DA90196074B0096039402910490024609
:101CA00020337989F8880AF05AFB002800D04720B1
:101CB00011B0F0BD0C0400207E0300209C03002026
:101CC0002F27000004290000F8B516460D460746E8
:101CD000002408F045FB002806D032462946384645
:101CE00000F01EFC044604E020356879002802D08C
:101CF0000E242046F8BD2879C10701D1012E09D054
:101D0000810701D4022E03D04007F2D4042EF0D173
:101D10000324EEE70224ECE77EB5044616460D46A2
:101D2000684603F02BFB68460378237040782870E0
:101D30006846807830707EBD70B500210C4A03E0A3
:101D4000535C491C5918C9B2535C002BF8D1CE1C06
:101D500002243525202E04D2545451184D70887019
:101D6000CB7004490C704D708870CB7070BD000052
:101D7000EC0300207003002010B509F02FFB1E4C6F
:101D80004721206849014118097B002909D1A03069
:101D90000079C00729D00CF005FD00F011FC00F01F
:101DA00037FE00F003F92068014640310A78C9790E
:101DB0008A4319D13E21095C002915D10F490A88AF
:101DC000120711D50922D2061269497A836AC9001D
:101DD000591809231B02C018806D801A00020012D6
:101DE000814201DA0BF06AF810BD01F075FD02F0D6
:101DF0009DFB08F06BF8D0E7E8030020C00000204E
:101E000010B5837F0122002492024168082B03D978
:101E10004224914202D310E0914201D242240CE0CC
:101E200001463422064806F0FBF900F07FF800284E
:101E300001DA482401E009F0BDFE204610BD000093
:101E4000480400203EB5174D15482968827F084692
:101E5000A0310A7300246030047644768476E1224F
:101E6000C2768022027702224277302008704C70BE
:101E700002AA01A96846FFF74FFF68460078A22230
:101E800001016846007A891C000201436846007916
:101E90000003014328681152A03004713EBD0000C8
:101EA00048040020E803002070B509F07BFA04F034
:101EB000AFFB06F08FFAFFF7CBFC03F019FE184CCE
:101EC00018492068184D4018811001202A68C00266
:101ED0001018C166616889080167A16889084167AF
:101EE00007F0BAFF1D2029688001228B081802879D
:101EF000628B4287A28B4286628C8286204620308B
:101F000002783B204001081882750021017001F021
:101F10005BFB03F047FB0BF09BFB00F0FFFD70BD8C
:101F2000480400200000FCEFE803002070B5002505
:101F3000ED430CF065F901282ED000231849032247
:101F4000888BFF24401E10438A7F4D3462438218E1
:101F5000088B282460431218488B302460431218E1
:101F60000846203040782C24604310180D4A181879
:101F700084184869A0420DD10B4884420AD90D69E2
:101F80000CF03EF9C1B2284600F00AFC00F038FD22
:101F9000401B251A284670BDFF23B533CEE700004D
:101FA0004804002039190000580A0000F8B52C4FE9
:101FB0003C68206E5C34401C002814D00025294861
:101FC0000023C07B00283ED00926F6062648002DB7
:101FD0001CD000210A460B464169521C994204D18B
:101FE000002902D004E00125E9E7204B9A42F2D310
:101FF0002160006960603069A1680002090E000A72
:1020000009060143A16000F033F81DE03169A268C0
:102010000902090A150E08D0018BC90712D04169BF
:10202000216000696060E37210E0881A00027D237D
:1020300000121B03984205DD100E00060843A06045
:1020400000F016F8F8BD6360002DFBD003CC0EF055
:102050009FFDFA200EF058F939688862F8BD00003B
:10206000E8030020680400200000104888130000E6
:102070000449002008610448012100686030C171F2
:102080007047000000001048E803002010B506F07B
:10209000B7FD10BD70B524490023086802464032E0
:1020A000537613764F225201821853710F2220303B
:1020B00082750522184652020C680546A418246B46
:1020C000303523540C68A418246B63550C683035E4
:1020D000A418246B63550C68A418256B044690342F
:1020E000401CC0B22B552D28E6D309688A18106B06
:1020F0009060044630345460903010600B480C46B9
:10210000483403800922427105238371C27103722E
:10211000418100F00DF8FF2020706070A070E07029
:102120001F20207170BD0000E8030020C0000020C7
:1021300010B5064801680648406A002803D02022EE
:102140000BF0F7FF10BD0020087010BDE803002061
:1021500048040020F8B5069C1F4615460646002C8C
:1021600013D0A06802220D3006F05AF8E81E82B2A1
:102170003B460721204606F0BBF9E580A068012E0A
:1021800005D01D2101730020F8BD4720F8BD1B219B
:10219000F8E770B515460646FFF796FD0446082D8C
:1021A0000BD1052C09D1304608F0DAF8002804D00C
:1021B000008A4004800F00D00024204670BD2423F4
:1021C000184204D0C81F092803D82032D17100203A
:1021D0007047422070470000F1B5FFB08BB001247A
:1021E000600205900027CC4807970168E320C000F3
:1021F000081803908A98C74D0005000D0AAA05A982
:1022000007F029FD0690002872D104260AA8059936
:102210004218203AD27F0B2A23D0002600200490B7
:102220000AA88119022201A8029105F0F9FF684667
:10223000818809AB08AA039802F07CFF012817D017
:1022400002287DD068468088854200D305468442B6
:1022500000D92046044602988078012871D01336B0
:102260003BE1491E761E36040591360CCFD1D5E7E9
:1022700008980090002F79D1009902222831029805
:1022800005F0CAFF00281ED100982030017B02987B
:102290008078814217D1012808D100980299022242
:1022A0000830C91C05F0B8FF002815D002988078C6
:1022B000022808D10098029910220830C91C05F0A4
:1022C000ABFF002808D00098008DA84200D8054632
:1022D000A04200D22046044602990AA88978012922
:1022E00007D013360599B6B28E4204D3012707E012
:1022F00005E1761DF6E78119022201A805F090FF9D
:102300000399009808318E462EE084466946026A99
:102310008B8820300DE0918B994203D3012F7DD122
:1023200099427BD9A94200D80D46A14200D30C4660
:1023300012688242EFD10498002817D1604601E06C
:1023400015E0BFE0006870450ED0018D994203D3BF
:10235000012F09D1994207D98D4200D30D468C42F5
:1023600000D80C46012F59D17045CED1BAE008985B
:102370000090002F72D1009902221C31029805F0C2
:102380004BFF00281ED100982030C1780298807839
:10239000814217D1012808D1009802990222083001
:1023A000C91C05F039FF00281AD00298807802284D
:1023B00008D10098029910220830C91C05F02CFFA2
:1023C00000280DD00098808BA84200D80546A04276
:1023D00000D22046044602988078012826D003E0E7
:1023E00002988078012805D013360798B6B20128E4
:1023F0001ED021E0009849490089884216D18A9868
:1024000000F048FE0146009800F026FD0099098C76
:102410004843009989694018022200E038E0029997
:10242000491D05F0FDFE01200790D4E7761DDCE78D
:10243000B61C0020B6B207900598864201D301274A
:1024400005E00AA88119022201A805F0E9FE039A15
:102450000099083209980968944630E01AE08646E7
:102460006A46938820300DE08A8B9A4203D3012F6D
:102470000ED19A420CD9AA4200D81546A24200D3E6
:10248000144609688142EFD1049800282AD102E05D
:102490000120049026E07046006860450FD0028D50
:1024A000016A9A4203D3012F09D19A4207D9954272
:1024B00000D31546944200D81446012FE8D1604558
:1024C000CDD10FE00298C078022805D1029800799A
:1024D000292801D1B61CB6B2761D0598B6B286423F
:1024E00000D301270598811B042902D3864200D21C
:1024F00094E604980028FBD1A54203D906987FB042
:102500000CB0F0BD224629468A9803F0D7F9069010
:10251000F5E70000FFFF0000E803002002290000AB
:1025200070B515460C46064607F003FF2034617966
:10253000012D09D00A0702D54207920F0FD0CA0613
:1025400025D5020709D522E0CA0702D04207920F1B
:1025500005D08A0705D5020703D4082070BD0520E1
:1025600070BD490707D5C00709D0E179304607F0AB
:1025700068FE5F2805D02079C00704D005E00F2051
:1025800070BD0C2070BD022070BD002070BD89069A
:1025900007D5C007F3D0E179304607F052FE5F2837
:1025A000EFD02079810701D4022D07D0410701D453
:1025B000042D03D00007E8D4082DE6D1032070BD18
:1025C00010B506F06BF805F034FE0BF019FE01288B
:1025D00001D100F004F800F0BFF810BD704770475B
:1025E00000207047002101E000BF491C8142FBD35D
:1025F00070470000F3B58BB005461C2248A103A824
:10260000FEF7CEFD684602F0B9FE09240126E40675
:10261000002D67D04420694688764848017A3143C6
:1026200001724C206946C87520200875B220487791
:102630005B2008A90870424A906A4249030C8B4209
:102640000AD108AFFB788F273B4008AFFB70FB78BF
:102650004007400E0343FB70506A020C8A420AD1C5
:102660006B465A7CCF231A406B465A745A7C8007BB
:10267000800E02435A7432484038006B020C8A4282
:1026800009D108AAD17889088900D170D17880074A
:10269000800F0143D1706946C87DFB21084069461F
:1026A000C8754878897800010843122808D308A91A
:1026B000C8780421084308A9C870C878FFF73CFB14
:1026C00003A8012180B209044018E060E068C0035B
:1026D000FCD469464878897800010843122801D360
:1026E00008F0F8FC1849088B0028FCD00E8317204E
:1026F0008881002008610C98002806D021691020EC
:102700000140226902408A42FBD0002D02D00F49CD
:10271000152008700F490E4808600DB0F0BD00008C
:10272000023F00023E30023C20023B4C023A400293
:1027300039B202345B02350B00000000000020407B
:10274000C007001055AA0000000010480000C0405B
:10275000CCBCECFC14000020F8B5104E30682030E2
:10276000C57D002D19D0002405277F0210E0E90760
:102770000BD0C01941695820604308184030417D92
:10278000204604F043F8002807D06D08641CE4B22A
:102790003068AC21095CA142E9D8F8BDE80300200B
:1027A000F3B581B0934A012101A805F0ABFC924C2E
:1027B00004222060432101A805F0A4FC1127216810
:1027C000FF01C91908670422432101A805F09AFCFA
:1027D00021680422C9194867FF21843101A805F046
:1027E00091FC2168854DC9198867A97F0C2201A831
:1027F0000B3105F087FC052621687602891988636C
:10280000A97F202201A805F07DFC216810228919EA
:102810008862A97F01A805F075FC21682822891922
:10282000C862052101A805F06DFC216830228919D4
:102830004863052101A805F065FC2168FF2289197C
:1028400008630132012101A805F05CFC21685822CF
:1028500089190864A97F01A805F054FC2168202289
:1028600089194861A97F01A805F04CFC21687822EC
:1028700089198861A97F01A805F044FC0F2122680D
:10288000C9015118C8630722032101A805F03AFCC9
:102890000F212268C901511808642822012101A8CA
:1028A00005F030FC0F212268C90151188864AA8BF9
:1028B000012101A805F026FC072122680902511810
:1028C000C866298B282201A805F01CFC0721226874
:1028D000090251184866698B302201A805F012FCE4
:1028E000072122680902511888660C22012101A8DB
:1028F00005F008FC21680C2289190861012101A852
:1029000005F000FC21682822891909698860284699
:1029100020300090417801A805F0F4FB21680422E2
:1029200089190969896888600098417801A8491C5B
:1029300005F0E8FB21681022891909698968486057
:10294000A97F01A805F0DEFB21680222C9194866AB
:10295000A97F01A805F0D6FB21680222C919C86326
:10296000A97F01A805F0CEFB21680222C9190864DD
:10297000A97F01A805F0C6FB21680222C919486495
:10298000A97F01A805F0BEFB21680122C91988644E
:10299000A97F01A8491C05F0B5FB21681022C919BF
:1029A00008660B2101A805F0ADFB0721226809028A
:1029B000511848600422802101A805F0A3FB21687A
:1029C0008919C861029ADC204243012101A84432DE
:1029D00005F098FB216889190862029AD8204243C1
:1029E000012101A82C3205F08DFB2168891948626C
:1029F0000198FEBD580A0000E803002048040020AA
:102A0000704710B5C001000C00F0ECF9002010BDBB
:102A1000FEB572B63F4D0823286801464030C279A2
:102A20001A43C27162B6002011276C46FF01820072
:102A30005218D219D26F52884300401CC0B2E252E1
:102A40000328F4D372B6C8190021866E816662B677
:102A5000F00702D000200BF049FFB00702D501209B
:102A60000BF044FF700702D502200BF03FFF300748
:102A700002D503200BF03AFF002623E00D281AD2DE
:102A8000211D254A8000125820469047002812D068
:102A900072B62868F7224030C1791140C17162B620
:102AA00030E03A2807D21C49231D8000E8390A5833
:102AB000194620469047029829684018C019C06FEF
:102AC0002188018071006846415AB00002902A684E
:102AD0008018C019C06F02889208920014180288EA
:102AE00008348A420ED0A27891070BD09107890F43
:102AF000012901D104460834A0788008C006E07896
:102B0000CFD5BBE7761CF6B2032EDBD30BF002FE6B
:102B1000FEBD0000E80300209426061070B50BF0FF
:102B200013FE124C11252068ED014019006F402161
:102B30000BF0D8FB21684919C867486F40210BF09A
:102B4000D1FB0926216836028A1910604819FF2135
:102B5000806F81310BF0C6FB236808229919486009
:102B600003480021181805F05FFB70BDE803002042
:102B7000E8080000FEB506462A4814460068E3222D
:102B8000D2008518C888032806D0234600220221D7
:102B90000420FEF707FD43E08968022268460D31F4
:102BA00005F03EFB326990052FD46846018817294D
:102BB00003D35C20405B172801D2172002E081423A
:102BC00000D2084670800120400202430220326198
:102BD000019014481B210068890141183788C97E7B
:102BE00076880123490710D51121C9010830401802
:102BF0002422C06F022109F0EFF9002805D0878058
:102C0000C6800146019809F0D3F9A068032606732F
:102C1000A068294602225C310D3005F001FBE680F8
:102C20000020FEBDE8030020F7B590B000206A4602
:102C30000D9090826A4AE3231268DB00D218CB8899
:102C40000446022B08D0002218210420129BFEF714
:102C5000A9FC002013B0F0BD8B6800205E7B0A90B9
:102C60000B9088883032019209900027019809F072
:102C7000A3FD054620E028680890A98809988142AC
:102C800019D1A968022207A80D3105F0C9FA002F51
:102C900001D16846878B6846808B87420BD12946D5
:102CA000019809F0D6FD002028600A98002811D06C
:102CB0000B9805600B95089D002DDCD1002FD4D119
:102CC000129819218068017301211298012EC18088
:102CD00002D081E00A95EDE702A90AA8FEF78FFC71
:102CE000002879D069460A891821129BFEF75AFC00
:102CF000002671E081680546022202A80D3105F028
:102D00008FFA012E66D16846008901F0B5FB0146B5
:102D100068460EAA008902F02BFA0E9C10992046F4
:102D200000F09AF80D9055E02F68012E3FD1002F4A
:102D300006D0B968022205A80D3105F071FA02E04B
:102D4000002069468882A968022204A80F3105F094
:102D500067FAE8880D99401F80B20090208CA26924
:102D6000484369461018098A009A431809212846E1
:102D700005F0CEFA2220005D012804D16846018AC0
:102D800000980818E08368460189808A81420ED045
:102D9000208C0D99A26948431018002101900091E0
:102DA0001098E38B0188A28B022009F023FB0A997B
:102DB00008680A90002008600A99002900D10B9049
:102DC0000121284605F040FB69460889898A884226
:102DD00002D13D46002DA7D10A9800288AD139E7B3
:102DE000E803002000B508490968084A914209D162
:102DF0004006010C06483F220281816111210180B9
:102E000000F022F800BD000014000020CCBCECFC57
:102E10000000104000B5094A1268094B9A420BD1D4
:102E2000084A3F23138180089061064840300160C2
:102E30003320108000F008F800BD000014000020CE
:102E4000CCBCECFC000010400248018AC907FCD051
:102E5000704700000000104030B5024623239B5C01
:102E60000020012B1AD112890D4B9A4216D10D4A1E
:102E7000052312685B02D318A0329B69127B0AE01B
:102E800045010C885D5B24052D05240D2D0DAC42FC
:102E900004D0401CC0B28242F2D8002030BD0000F5
:102EA00002290000E8030020F7B578480F460068C3
:102EB000E321C9004418F88888B0072804D200220A
:102EC000062104200A9B2AE0B968022268460D31D7
:102ED00005F0A6F9B968022201A80F3105F0A0F9A2
:102EE000B968022204A8113105F09AF9F888C01FC8
:102EF00080B2039068460288808882420CD8002AFB
:102F00000AD00898002142880A9805F0D3FB0028CF
:102F100008D045200BB0F0BD062101200A9BFEF72A
:102F200041FBABE00A980721806808340173012156
:102F3000684601810594008801F09EFA05007CD066
:102F400086E06846008A0522D202904202D0521CD6
:102F5000904226D168460088814278D329460B22C8
:102F600008313846039B05F069FA69466A8D098A7B
:102F70008A426CD10399022901D0102967D1002817
:102F800065D12A462846296A28322030814202D05B
:102F90006B6A1C3300E0134602A90A98FEF715FB82
:102FA00055E02E462C6A2036B4424ED14FE0694699
:102FB000A08B0988884247D369468988884257D8B8
:102FC0002320005D01283FD120460899FFF744FFE8
:102FD000218CA269414351180B223846039B05F00E
:102FE0002DFA069008980122008821460005000D60
:102FF000FEF76AFE01466A462089128A904223D172
:10300000002921D1E28B03998A421DD1069900291A
:103010001AD108996A4649881289891A042927D33E
:1030200022461B491C32884208D12068B04205D094
:103030000089884202D02468F7E719E023461C3350
:1030400002A90A98FEF7C1FA2468B442AFD12D68EC
:10305000059885420CD06846298D8088814207D822
:1030600008986A4640881289801A042800D368E7C5
:1030700068460089012803D90A99C880002049E7D9
:103080006846028806210A200A9B48E7E8030020D8
:103090000328000010B50D4900050B680521490201
:1030A00059188A690021000DA0331B7B0AE04C01EE
:1030B000145B2405240D844202D14801801810BD00
:1030C000491CC9B28B42F2D8002010BDE803002091
:1030D000FFB589B0002405460794D0881646052818
:1030E00004D00022042108460C9B20E0B168022293
:1030F00008A80D3105F094F8B168022268460F3136
:1031000005F08EF86846028C008882420CD8002AAE
:103110000AD00A98002142880C9805F0CBFA0028C2
:1031200008D045200DB0F0BD042101200C9BFEF716
:1031300039FAB9E06846008C01F09EF9060076D0B5
:10314000083504950498864272D06946308D098C02
:10315000884230D36946098888422CD8002C0AD18D
:10316000012107910C9805218068022401730C98B5
:103170000799806841730A984088001B042857D338
:103180000798012854D1201D81B2334628330222EA
:103190000C9805F0ADF9A01D81B233462A33022206
:1031A000A41C0C9805F0A4F96946A41C308D09886C
:1031B000A4B2884274D03746356A2037BD42C1D0A8
:1031C00060E06946A88B098C88425AD36946098811
:1031D000884265D8002C36D02320415D0798814273
:1031E00060D10A984088001B042802D3079901295E
:1031F00004D0122856D30798022853D1201D81B23B
:103200002B461C3302220C9805F072F9A41C079877
:10321000A4B201280DD0201D81B22B460833102204
:103220000C9805F065F92046103084B229E03DE0A5
:1032300036E0201D81B22B46083302220C9805F09F
:1032400057F9A01CF1E72320415D07910C98052157
:103250008068022201730C980799806841730C986A
:10326000294680681C310E3004F0DAFF07990129E5
:103270000CD02B460833102208210C9805F038F9A1
:1032800014242D68BD429CD136685BE70C98294612
:10329000806802220831103004F0C2FF0624F0E7F3
:1032A000002C03D00C98C48000203BE76846028CB9
:1032B00004210A200C9B3AE7830810B50A48002134
:1032C0000268052040021018A0328069127B07E0D6
:1032D0004C01045B002C01D0994204D0491CC9B2B6
:1032E0008A42F5D8002010BDE803002070B50C46D6
:1032F0000B4E81000B4832680D1801232032D37722
:1033000021462846FFF786FD28680021844201D126
:10331000084600E0FB2032682032D17770BD000003
:10332000E80300200000041000B585B001216A46C2
:1033300011740020019004AA0748009103920291A1
:103340000B46428801880548008809F091F9002859
:1033500000D0472005B000BD78030020880300207E
:1033600038B5184A14682246BA32AE34A378DD075D
:1033700001D001290AD05B070CD501290AD0217997
:1033800049070BD5E17A002905D007E0E0788021D4
:103390000843E07038BD0121E17250802079410678
:1033A000090FF7D07821084069460870002048705E
:1033B0006A460221422008F00FFF20798721084049
:1033C000207138BDE803002070470000FFB50C46AF
:1033D00078A103C995B001910090002108A801735C
:1033E0000321C90268464186012108A8734E017471
:1033F00035681746AE3502F0CDF9002808D170497E
:103400003068401801F076FFA878002802D04620E6
:1034100019B0F0BD0BA8159900F09AFA0028F7D161
:10342000072010A90871012C05D0022C0AD0002C0D
:103430000ED04220ECE708A8017B1020014308A829
:10344000017305E011A90BA800F091FA0028DFD163
:1034500010A8027901230CA9284600F0CFFE00280D
:103460007ED102222946189804F0DAFE298868469F
:1034700081811521490201820784012686734E212C
:1034800008A881700024C4700671072141718671FB
:1034900003A902A800F06CFC002861D1022202A955
:1034A0001E9804F0BDFE082F02D26846478502E050
:1034B00008206946488569460C850B4628880AAA73
:1034C000098901F03DFC00286DD13E496846018222
:1034D0000227078408A8847103A902A800F048FC09
:1034E000002860D1022202A91F9804F099FE6846C4
:1034F0000470694644704F850B4628880AAA0989DA
:1035000001F01EFC00284ED108A8007BC00723D084
:103510002C496846C91C01820821018408A88770CB
:10352000047103A902A800F023FC00283BD1FF216D
:103530006846C1718171C1708170417001704471C0
:1035400004716946082048850B4628880AAA09891B
:1035500001F0F6FB002826D108A8007B800600E0D9
:1035600021E022D52988684681811649A53101824A
:103570000684867308A88770C4700471072141719E
:10358000847103A902A800F0F3FB00280BD169465F
:103590000E700C854E850B4628880AAA098901F011
:1035A000CFFB002801D0472032E708A8007BA87095
:1035B00000202DE7626C75656E726721E8030020BC
:1035C000DE060000012A0000034800210068AE303A
:1035D000C170817070470000E803002038B50246D2
:1035E000174801240068AE30022A1FD0052A03D0F4
:1035F000072A07D00B2A20D1084609794088FFF70F
:10360000AFFE1AE000790024020600D501248207EB
:1036100003D1C20601D480060FD5084600216A46B0
:103620001170694608F03AFB044606E081784907C4
:1036300003D50179FB2211400171204638BD0000FD
:10364000E8030020704700000FB410B5079C012864
:103650002DD1684680891749884210D103A80FC828
:1036600000F0AAF900281DD106F004FAFA281ED0AD
:1036700001281CD92078F3210840207017E00D495B
:10368000491C884208D0C91E884205D0491C88427E
:1036900002D0C91C88420AD103AC0FCC00F08CF9CF
:1036A000002800D0632010BC08BC04B018470020DC
:1036B000F9E70000022A0000FFB5074671480D46F1
:1036C00004688FB0AE34A1781E46C80602D5E078F3
:1036D000C0067DD4880607D5E0788006800F03D029
:1036E000022F01D0002E73D08806800F06D0022F43
:1036F00008D0032F06D0002E6AD003E0012F01D09E
:10370000002FF8D1880603D4002D01D0012D5FD100
:10371000002E06D130200140384602F07BFC002804
:1037200056D1119900200870A0788006800F7DD0B6
:103730000CA908A802F020FF07900DA90AA802F022
:1037400047FF06900798002802D00698002801D16C
:10375000012E58D1022F04A807D001F02FFD002E12
:103760003CD00798002803D012E006F0BBFDF6E736
:10377000444F45483B68062208A9181804F04CFD40
:103780000028386808D04030417E49084900417619
:103790000698002805D014E04030417E01221143F4
:1037A000F5E7384F38483B6806220AA9181804F094
:1037B00033FD002838680CD04030417EFD22114096
:1037C00041760798002809D00698002806D01AE00C
:1037D00043E04030417E02221143F1E729480622AE
:1037E0000368294804A9181804F01AFD0520694641
:1037F0000873002E02D1084607F0CCFE2348029041
:10380000684607F079FEA078800611D5119803214B
:1038100001702079C10603D5002D01D0022D1CD1E5
:10382000800605D5012D03D0032D00E018E014D14A
:10383000A078C00623D51199012008702079C1060F
:1038400001D5002D09D1810601D5012D05D1000634
:1038500015D5002D13D0012D11D0422013B0F0BD8D
:10386000012F0CD1002E0AD1064806220368064813
:10387000611D181804F0D4FC119901200870002073
:10388000ECE70000E8030020DE060000A0BB0D000E
:103890003EB50AF041FD04460AF0CCFD082C01D1EA
:1038A000082813D00A480B490068062241186846C8
:1038B00004F0B6FC68464079400601D5022000E0DD
:1038C0000320012302AA0021FFF7F6FE3EBD0000FF
:1038D000E8030020DE0600001FB50E480468AE3481
:1038E000E078010612D5A178C9070CD0800708D569
:1038F000042069460873684607F04CFE022008F071
:1039000011FC0020E0704006400EE07000F02EF840
:103910001FBD0000E8030020F0B58DB00C4616A9CD
:10392000E0C90021089109910A910B911599049120
:1039300005A9E0C112A962C900930191134601468D
:10394000039602952246012008F05AFA0DB0F0BD08
:103950000A07920F01D0422070478A07FBD00278F5
:103960008907890F0A430270002070477047422080
:103970007047000010B50446022000F051F80D48D1
:1039800000210268052040021018A0328369107BD4
:1039900005E04A019A5A002A04D0491CC9B288425B
:1039A000F7D810BD48011C52C018026904210A430F
:1039B000026110BDE80300201FB582B0002401F0B1
:1039C0006FFC694601F0E4FB009A6846116A0089C1
:1039D000203209E023235B5C012B04D10B89834255
:1039E00001D1641CE4B209689142F3D1204606B0CB
:1039F00010BD000010B504460146042002F09AF9FB
:103A0000002809D00548E3210068C9004018214674
:103A10003C3008F001FF432010BD0000E803002007
:103A200004490A683B21490151180A7802430A7087
:103A300070470000E803002000B51138C0B2FFF75E
:103A40003BFC002804D001220169520511430161A9
:103A500000BD012189078A6A02438A6270470122F8
:103A600092070029D16901D0014300E08143D1616F
:103A700070470CC8012189070838012B0B690BD04E
:103A800093430B618268012A08D0002A0AD04A6950
:103A9000006802434A6170471343F2E78A6903688A
:103AA0001A4302E08A6903689A438A614A69006896
:103AB0008243EFE701218907496A014201D00120D1
:103AC000704700207047000038B506F031FF0E4CFB
:103AD000800000198038C06FFFF7ECFF012812D179
:103AE00006F026FF800000198038C06FFFF7B1FF95
:103AF000064800688168684688476846007801285B
:103B000001D10349087038BD5825061098030020DC
:103B100086030020F0B502790124A4070168002A79
:103B200002D0062A03D006E063688B4302E0636894
:103B300000220B43636000210F270368CB40DB07A3
:103B4000DB0F19D0082909D2E56A8B003E469E405A
:103B5000B54316469E403543E5620DE00B46083BF3
:103B6000082B09D28B003D46203B266B9D40AE437F
:103B700015469D402E432663491CC9B21A29DCD341
:103B800041790129E168026809D09143E1608179B6
:103B90000129A168006804D08143A160F0BD1143F0
:103BA000F4E70143F9E7012189070968014201D0DF
:103BB00001207047002070470149086070470000ED
:103BC0004000004001218907C8637047002101605F
:103BD0000171817141717047012189070A68424072
:103BE0000A607047012902D003490860704701212B
:103BF0008907C86370470000400000400348006820
:103C0000AE3080788006800F70470000E803002007
:103C1000F3B597B00D8848880590081D1DC80DAEF6
:103C20001DC68C8ACE8A087E1390C8692031019007
:103C3000087800904878049088780390C8780290BB
:103C40000F7900F0BFFD002817D101204002844207
:103C50005FD8B4425DD8002F01D1B44259D114A924
:103C6000284601F095FA002806D115AA149905985E
:103C700001F07EFA002802D0602019B0F0BD149D3A
:103C800011A92846183003F0CFFF10A8808800281B
:103C900010D0284612A9203003F0C6FF10A8838850
:103CA00000892A8D1818696A10188A8B904203D1EE
:103CB0006120E2E74820E0E715982C4B02899A4200
:103CC00027D12322125C012A23D1006800681690B4
:103CD000139801281FD16846808E29221202801A6B
:103CE000030008F01AF80604180404070A18022C46
:103CF0000FD110E0072C0CD10DE0042C09D3E00704
:103D000007D1012F07D1A64203D3042E01D3F00718
:103D100001D04220B1E702980B90039B049A0A93CA
:103D200009920098019A0C970890069605940792BC
:103D30000DA81DC8019002A81CC013980B46009046
:103D40002A461699179800F0AFF9002895D16846D1
:103D50000649808EFF31884205D0179801880020DF
:103D60000A4601F0ABFD002087E7000003280000B1
:103D7000F3B5A5B008881A9088780C4611901022E7
:103D8000091D13A8FDF70CFAA08A1090A17D6846C2
:103D90000172E07D0F90207E2090677EA07E1F90B4
:103DA000002006460146129020A801810F20BB4C3E
:103DB0002390E3212068C9004018199000F002FD0B
:103DC00000280BD101211098490288425FD821A90F
:103DD0001A9801F0DDF9002802D0602027B0F0BD6C
:103DE0002198179001F05CFA1A9988420CD102A828
:103DF00001901698009013AD0ECD1198FFF724FC9A
:103E0000002801D06320E9E76846017A8806800F20
:103E100005D0012012902068A030007B4600C80722
:103E200003D01298401CB61C1290080603D51298B5
:103E3000401CB61C129017980DA918301D9003F065
:103E4000F3FE6846129C808EA41CA04237D31798BC
:103E50000EA92030019003F0E7FE6846018F00298B
:103E60000DD01798179A6B46406A9B8E128D591881
:103E7000808B5118081AA04201D26120AEE7179832
:103E8000846911982568012803D0022803D04220B4
:103E9000A4E7052000E01320E0832A4639460F9866
:103EA000FEF78DF9422899D0199FE28B4037788B25
:103EB000398B411A109810188019814201DA482074
:103EC0008CE70EA9019803F0AFFE6846008F00282A
:103ED000179802D0406A808B00E0008D2599401C25
:103EE0000880259801210088A08325980222008857
:103EF000401CA8836A482081204620301790C1705A
:103F00000021817081711998398B406D4018694684
:103F1000A061097A0170A06929461C31401C04F097
:103F20007FF911980128A0697ED0102213A9C01C26
:103F300004F076F92846102213A9083004F070F92D
:103F4000388B133038832E4620361198F070109835
:103F5000E8831F98B07010982084109828841998CE
:103F6000398B406D4018A8610021109A04F05CF96B
:103F7000398B109808183883179901200871179900
:103F80000020487130716846007A810701D501210F
:103F9000317101070227002902DA31793943317181
:103FA000410703D53179042211433171400603D50D
:103FB00030790821084330710F9870712098B071E2
:103FC00021461D9803F059FE2146019803F036FE64
:103FD00029461D9803F051FE2946019803F02EFE54
:103FE0001298002841D068461A998181A18BC1811D
:103FF00007844784012408A8047122A80A9008A80D
:104000008473239941730F993820014008A80173E4
:104010000721C173002505746846007AC00708D0DF
:1040200020486946088200E02AE003A924A8FFF797
:10403000EFFD6846007A8006800F07D01948694670
:10404000401E088203A924A8FFF7E2FD6846007A13
:1040500000060AD5292109026846018208A844738E
:10406000057303A924A8FFF7D3FD259801881298AA
:10407000401C081882B2002001F020FC0020ADE6B0
:10408000022213A9C01C04F0CBF82846022213A96F
:10409000083004F0C5F8388B401D53E7E8030020D2
:1040A0000328000003290000FFB55248E3220068FE
:1040B00087B0D2008218069210AA109B0126169F84
:1040C0009288012B04D14C4B9A4201D1A030067B3F
:1040D000069D34464035688B2B8B7C43C31A099868
:1040E00020300390A34222DA48200BB0F0BD2320F9
:1040F000405C012819D108896C46208098420CD078
:104100003D4C641EA04208D0641CA04205D0641C33
:10411000A04202D0A41CA04207D1374CFF3CA042D1
:1041200001D0904201D16220DFE7096801E0292334
:104130001B0203988142DAD109981B998469189867
:104140002246FEF73CF84228CFD01C98012804D123
:104150001598874201D24220C7E71598E083204690
:1041600020301C990590817027840A98808B401C10
:10417000A0831098012814D02046102211A90830DD
:1041800004F04EF805991098C8700698298B406D78
:104190004018A061298B38467043081828830025F1
:1041A0000FE011A80FC808340FC4183CEAE72846EE
:1041B000A16978430818159A179904F031F86D1C15
:1041C000EDB2B542F3D3059918984871059919983D
:1041D000087105991A98887109982146183003F0DA
:1041E0004CFD2146039803F029FD0798A18B01801F
:1041F00000207AE7E803002002290000FFB58FB015
:1042000014460E78102205A8891CFCF7C9FF5048F7
:10421000E3210068C900451800F0D4FA00281ED137
:10422000002C57D0012E09D16846808A494988421E
:1042300004D12846A968083081424BD12846103065
:1042400029690390814209D00AA9284603F0ECFCB1
:104250006846018D601E0D90814202D2482013B045
:10426000F0BD284608300CA9049003F0DDFC684638
:10427000008E002814D0EF680AA93846183003F0E1
:10428000D3FC384620300CA903F0CEFC6846398DAB
:10429000008D09186846008E401C081887B200E09F
:1042A000012701200004C01BA04201D26120D6E7F3
:1042B0002C69286801901298012802D0022803D0A6
:1042C00008E00520C00200E023486085012E03D0ED
:1042D000022E05D04220C2E720460830022202E02A
:1042E00020460830102205A903F09AFF20463146E7
:1042F0002030064601730F982146078027850398D2
:1043000003F0BBFC2146049803F098FC27461837BD
:10431000E7616662A76126620D9884B20BE02846C9
:10432000019903F0AAFC3846019903F087FC28683C
:10433000641EA4B20190002CF1D10F9801880D9851
:10434000081882B2002001F0B9FA002087E70000C7
:10435000E80300200118000001280000F7B5064618
:1043600039480F460068E321C900441882B030463E
:10437000FEF790FE050064D020462430009008F03F
:1043800061FA00285DD1286900035AD5009808F029
:1043900013FA044653E0A088B0424FD120223146A0
:1043A000002003F0F5FF06001CD0A068002F017B61
:1043B000427B19D033460498FDF7F4F80020012120
:1043C0002A69C9048A432A6100282ED0692806D0A8
:1043D0003046FFF70FFB29691020014329610020B7
:1043E00005B0F0BD6420FBE70A2906D00C290AD0ED
:1043F0000E290ED0082912D023E032462146284645
:1044000005F02EF9DBE732462146284604F017FD79
:10441000D5E732462146284605F00CF8CFE732466C
:104420002146284604F09EFEC9E72146009808F080
:1044300010FA0121204604F007F8C9E72468002C8F
:10444000A9D14120CCE70000E8030020024609483A
:10445000E3210068C90041188868083103E0038D32
:10446000934202D200688842F9D1884200D10020EC
:1044700070470000E8030020034610B50F48E32111
:104480000068C90041188868083103E0148D9C4217
:1044900003D8104602688A42F8D18A420CD1018DB5
:1044A000994209D20146026A20318A4203D0416A08
:1044B000898B994200D2002010BD0000E803002043
:1044C000024610B50B481205016805204002081885
:1044D00083690020120DA031097B07E044011C5BB9
:1044E0002405240D944203D0401CC0B28142F5D86B
:1044F00010BD0000E8030020F7B5054617460198F7
:1045000008F05AF92E050446360D0CE0A0882568FF
:10451000B04207D12146019808F09BF93946204660
:1045200003F092FF2C46002CF0D1FEBDF0B58BB00D
:10453000002064490290E3200A68C000141872B693
:1045400010464030C57902231D43C57162B6254629
:104550004035287AC0077DD005204002101800267B
:1045600087694AE071017A5A002A44D0C919069134
:1045700009694A021FD48A0227D5022104910699AB
:10458000012309880905090D03911B21890141189F
:10459000C97E89070FD51121C9010830401823228F
:1045A000C06F022107F018FD010004D0039A8A8031
:1045B000049807F0FDFC069800880090069800F02B
:1045C00083F8009805F03AFC15E0480713D50698E3
:1045D00000880005000D05F00DFC002805D10698A7
:1045E00000880005000DFDF7F7FD06990420096914
:1045F000814306980161761CF6B23248AC2100680E
:10460000095CB142AED804F031FA204624300646A7
:1046100008F018F9012802D0012004F029F92046F9
:10462000183008F00FF9012802D0002004F020F91A
:104630003C34204608F006F901280FD002A9204694
:1046400008F029F90420029901F074FB0028F0D049
:10465000204600E034E0029908F0CBF8287A000602
:104660002ED5304608F0EEF8012829D1002003F0BD
:104670006BFEA98B23314909491CC9B2FCF77AFDAD
:1046800000281DD00F4D044628681121C9010830AB
:104690004018422601233822C06F314607F09CFCA7
:1046A00001000DD000228A80CC80304607F080FCCB
:1046B0003B212A68490151180A78802082430A70F8
:1046C0000BB0F0BDE8030020F0B504463C48E32100
:1046D0000068C9004518218A85B089041AD50221CD
:1046E00004911B2189014118497F41262788012314
:1046F000C9070FD01121C901083040183122C06FFD
:10470000022107F069FC010004D08F808E710498AB
:1047100007F04EFC2946208801221831FFF7ECFEF5
:104720002946208801223031FFF7E6FE29462088FD
:1047300001222431FFF7E0FE2946208800223C3187
:10474000FFF7DAFE20880005000DFFF7B9FE8500AF
:10475000294611316846017306F01CFF29461231C3
:104760006846017306F016FF294613316846017347
:1047700006F010FF68461435057306F00BFF20881D
:1047800000F028FA208801050D48090D026805206F
:1047900040021018828F914201D100218187E06987
:1047A000002802D0012103F04FFE202200212046E4
:1047B000A56803F039FD1720A560608005B0F0BD45
:1047C000E803002010B50B48E3210068C900441835
:1047D0004034207AC00709D0002003F0B5FD217ACB
:1047E000890701D5002803D0002010BD472010BD47
:1047F000642010BDE8030020F0B55FA099B0006808
:104800005E491590E3220868D200841805225202FE
:10481000821892692546403514922A7AD20702D02E
:10482000622019B0F0BDAA8B01235B029A4201D924
:10483000AB8303E0172A01D21722AA83149AA0306F
:104840001392067B0DE0761EF6B2139871010F18D5
:10485000B8680F9038462022002103F0E5FC0F983D
:10486000B860002EEFD120460830E0606460A060A0
:1048700024600830139060612061FF22002108301D
:1048800007F0AFFF2046FF220021243007F0A9FFE8
:104890002046AA7F0021303007F0A3FF2046FF22E8
:1048A00000213C3007F09DFF00222A72104617219C
:1048B000324B05E0149E4701BE19401C7180C0B206
:1048C0001E68A036367B8642F4D8002028832F8CC1
:1048D000688C0026149008E02820E16C70430918C9
:1048E000204603F0ABF9761CB6B2BE42F4D30026E4
:1048F00008E03020216D70430918139803F09EF9E9
:10490000761CB6B214988642F3D30120FFF788F8DC
:104910000124684604701A494180234604226946EE
:104920000CA8FFF76BFC002822D16846018E81821B
:1049300014490183042606858475202108A8817204
:104940000024C472047307214173847305A90DA860
:10495000FFF70EFA00280BD1684604874687818E40
:1049600015AB0EAA008E00F0EBF9002800D158E735
:1049700000202872472054E70000FFFFE8030020D2
:1049800001180000052A0000F8B504467D480E46CF
:104990000068E321C90047184820C05DC0077BD0EC
:1049A000B088FEF777FB0546012C02D0002C75D0AD
:1049B000E6E0002D0CD0286941074AD4B268F1889E
:1049C000147B0029F4D062060CD56888884201D295
:1049D0000121B2E0D22C01D0522CF9D13846314617
:1049E00018303FE0A106890E1E293ED81E2C21D189
:1049F00001071FD50821884328612988012006F076
:104A00009FFB0121304603F01FFD5E481121006825
:104A1000C9010830401842242D8801233922C06F73
:104A2000214607F0D9FA010003D08D80204607F017
:104A3000BFFAA5E0E1070AD01D2C10D01B2C0ED028
:104A4000410529D4012189020843EE6192E0C006A4
:104A500001D54520F8BD2988002006F05FFB3846C7
:104A60003146243007F0D8FE8AE029882022002031
:104A700003F08EFC05000FD00121304603F0E4FC6A
:104A80002B46002221460620FCF78CFD2846FEF727
:104A9000B1FF75E000E001E04120F8BDB068047BA3
:104AA0001D2C3AD01B2C41D00021304603F0CCFC09
:104AB000032C46D0052C44D0072C42D0092C40D0E2
:104AC0000B2C3ED00D2C3CD00F2C3AD0112C38D0D2
:104AD000132C36D0172C34D0192C32D0012C30D0D6
:104AE000022C35D0042C33D0062C31D0082C2FD0FA
:104AF0000A2C2DD00C2C2BD00E2C29D0102C27D0EA
:104B0000122C25D0162C23D0182C21D0522C1FD09B
:104B1000D22C1DD01E2C2FD032E0002D03D029889E
:104B2000012006F0FBFA3146022001E03146012067
:104B300006F0F4F9002823D00021304603F084FC6D
:104B40001EE029691020814329612988002015E091
:104B50002869402188432861010511D5FF210131D1
:104B6000084328612988022006F0D8FA0121286923
:104B7000C9028843286103E02988032006F0E0FA8F
:104B80000020F8BDE803002010B5114AE3231268A5
:104B9000DB00D2184032127AD20706D002280AD09F
:104BA000052804D00B2810D101E0412010BD488811
:104BB000FEF7E0FE09E04888FEF76CFA002804D012
:104BC00001220169920511430161002010BD00001E
:104BD000E8030020F1B5FFB085B047200190002028
:104BE000694608805348E3210068C9004718849843
:104BF000FEF750FA0290002874D0B96808374FE0E9
:104C0000684600880D4604AC20186B460222283105
:104C10000DF01BFB68460088294620186B460122D0
:104C20002C310DF012FB2E462036307B69460128D0
:104C3000098804A809D040186B461022294608317B
:104C40000DF003FB01902C6A27E040186B4602220E
:104C5000F4E76946098804A8401821466B460222F9
:104C60001C310DF0F2FA6946098804A84018214663
:104C70006B46012223310DF0E8FA2320005D6946DE
:104C80000128098804A830D0401821466B4610221C
:104C900008310DF0DAFA01902468B442D9D12968BC
:104CA000B942ADD1019800281CD16846008881071F
:104CB0000AD0214A011D11406A4611800A1A04A92E
:104CC00008180B2103F0B0FA0298008805F092F85A
:104CD000002807D1849869460005000D04AA0988B8
:104CE00004F0EAFE7FB006B0F0BD401821466B46E6
:104CF000022208310DF0A9FA019020890F4988425B
:104D0000CAD120460299FEF7A7F84000A169039096
:104D10006A460918128804A880186B4602220DF012
:104D200094FA0190A169039802220818002103F067
:104D30007BFAB1E7E8030020FCFF00000229000035
:104D4000F0B5074617480E4600683B214901401858
:104D5000007885B01D461446C00706D003A9384622
:104D600000F016FA00280AD102E0472005B0F0BD95
:104D700004AA3046039900F0FBF9002801D0602016
:104D8000F4E70499228860880968002A00D0088C1A
:104D900032466E4631C603233946002000F004F83F
:104DA000E4E70000E8030020FFB5002099B0239A53
:104DB0000B90129005461490064615901C46DB4851
:104DC0000B460068E321C900411803910021229F8E
:104DD000089109915188069111880A913B21490156
:104DE00040180078C00706D00FA9184600F0D0F987
:104DF00000280AD102E047201DB0F0BD10AA0F998B
:104E00001B9800F0B5F9002801D06020F4E719984C
:104E1000002803D0600701D5012000E00020139096
:104E2000A007800F1C90109817902030C0780128A0
:104E300040D11798BE4B01899942F9D1179806992C
:104E400004680A98228C4118914233D820462030B9
:104E500016908078012816D0E08B0490179880690E
:104E600000788006800F7DD0039840301890007A3B
:104E7000800777D51C980028F5D0AD4F0F99FF37E4
:104E80002031206814E0BA4214D3B942DDD8049727
:104E9000E4E70389A64A934203D12322125C012A44
:104EA00008D0BB4203D12322125C012A03D0006840
:104EB0008842EED134E105900028FBD09B480521C3
:104EC00002684902511889690027009162E078015F
:104ED00000990390085A01055AD01999002901D068
:104EE000884255D105997A008B69511C595C9A5CAE
:104EF0000902891889B20D91890749D002220599C2
:104F0000FCF7E2FE002804D01998002840D0652064
:104F100072E7002008A9C8551C98C00718D0179838
:104F200080690078C00613D50D98C00710D0012005
:104F3000C8550543009A039880184088159A9042F6
:104F400006D91590009A0398105A0005000D149088
:104F50001C9880071CD5179880690078800617D5A3
:104F60000D9800E084E0800712D50220CA5D054359
:104F70000243CA5500990398401840881599884201
:104F800006D9159000990398085A0005000D149051
:104F90007F1CFFB265480068A030037BBB4296D8F7
:104FA000002D65D01898007A00065FD45F4801682C
:104FB000052040020818816900201BE042018E5A3A
:104FC000360515D0AE070BD556183669B7070DD480
:104FD00008AF3F5CBF0703D5360701D546200BE776
:104FE000EE0705D05218127CD20701D0432003E708
:104FF000401CC0B28342E1D81598C01E86B2049806
:10500000864200D90646A8070FD520220020149911
:1050100003F0BEF9129000287DD0F01C82B200216E
:10502000129803F040FB002811D1E80720D020227D
:105030000020149903F0ACF90B90002807D0F01C65
:1050400082B200210B9803F02EFB002810D08020A4
:10505000FEF7E6FC1298002802D0002103F0F4F9D4
:105060000B98002802D0002103F0EEF96420C3E67B
:10507000A1690A98069A0818249903F0D1F816989D
:105080008078012801D10498E083002D46D0274B79
:1050900005201968400208188169002008AA0CE060
:1050A0004301CF5A3F0506D05F18BC463B69175CE9
:1050B0003B4367463B61401CC0B21C4B1B68A0339E
:1050C0001B7B8342ECD8A8070DD512980090F01CEA
:1050D00082B221461C310220A369FDF73BF8022071
:1050E000129905F01BFFE80718D00B980090F61CEA
:1050F0002146B2B21C310120A369FDF72BF81398A9
:10510000002805D00B988021C07C08430B99C874F7
:1051100001200B9900E005E005F000FF00206BE6A0
:10512000422069E68020FEF77BFC9FE7E803002031
:1051300003280000F0B58468083015E0258D8D4205
:1051400003D1146018600120F0BD26461C60203693
:10515000256A06E0AF8B8F4202D102201560F0BDB8
:105160002D68B542F6D124688442E7D10020F0BD15
:1051700010B50B6A203106E09C8B844202D10020DE
:10518000136010BD1B688B42F6D1412010BD00009A
:1051900010B5094AE3231268DB00D218936808327D
:1051A00006E01C8D844202D100200B6010BD1B68FC
:1051B0009342F6D1412010BDE8030020F8B5204EFF
:1051C00004463568AE3500F027FA2070000A60709A
:1051D00000F022FAA070000AE07000F01DFAC2B2DE
:1051E0008004830E2271002163710846275C401CF5
:1051F0007918C0B289B20628F8D30029E3D0207804
:10520000FF280CD16078FF2809D1A078FF2806D1AB
:10521000E078FF2803D1FF2A01D1FF2BD3D006224B
:10522000691D204602F0F8FF0028CCD03168062224
:105230002046783102F0F0FF0028C4D0F8BD00000D
:10524000E8030020014909688968084794030020A1
:1052500008B506480068816868468847684600784F
:10526000012801D10249087008BD00009803002000
:105270008603002010B5094C002801D0012806D073
:1052800005F056FBC00000198038806F10BD05F096
:105290004FFBC00000198038C06F10BD08250610F4
:1052A00002480068AE30008870470000E803002024
:1052B00010B50F4C002803D0012809D002280FD0C8
:1052C00005F036FB0C21484300198038406F10BDB3
:1052D00005F02EFB0C21484300198038806F10BD6B
:1052E00005F026FB0C21484300198038C06F10BD23
:1052F0003025061010B5034906220968B33102F0C3
:105300008FFF10BDE8030020F7B5164600241CE00F
:105310000098114900194018810801988900001966
:1053200042780578120215438278C078120400068C
:1053300002430948154340420F1829463846FDF7F5
:1053400069FD3868854204D1241DB442E0D30020B1
:10535000FEBDFB20FEBD00000000FCEFF0B50E46D8
:105360000746002407E03D1900F056F92870000AAE
:105370006870A41CE4B2B442F5D3F0BD0F4910B577
:1053800028390E4BCA691206120F4270C969090703
:10539000090F817019680A4C01234160A14202D1B2
:1053A0000221017000E00370002A00D1437005491A
:1053B000898A491C8900816010BD00002800904046
:1053C00041A000020000104010B5012818D807299C
:1053D00016D80C4A1268134620331877597780077D
:1053E000C906000E090E01430020074BA03204E05D
:1053F0008401E418A172401CC0B2147B8442F7D827
:10540000002010BDE803002000010020074A91425F
:1054100002DC5242914200DA1146FF229932514396
:105420000A1251180A14511808187047FFFF4F004C
:1054300010B50920C00600690002000A06F0D6F87F
:1054400010BD70B50D460446FFF7F2FF2946FFF781
:10545000DDFF0146204600F001F870BD1FB56A4629
:105460003A3010736846029106F058F8002800D0D0
:10547000012004B010BD0000012801D1014948708D
:105480007047000084030020F0B5444F044638689C
:1054900085B0783016460D46002C19D0062C11D058
:1054A000082C0CD0182C0AD0282C0BD02A2C09D070
:1054B0002C2C0AD02E2C0BD0D02C42D043E0102D17
:1054C00008D040E0022D05D03DE0012D02D03AE0A9
:1054D000062D38D10A460019314602F0A1FE2C2CC7
:1054E00028D13078002825D008F08AFE012824D061
:1054F0001B201F304009401C41004118012002F0D0
:1055000011FF08F07DFE012819D01B201F30400933
:105510004100411822484078401AC01EC1B2002004
:1055200002F000FF38684022403001781143F92230
:1055300011400170002005B0F0BDFB20D9E7FB2031
:10554000E4E7012D04D008F05BFE012804D007E059
:10555000107804F066FEEEE7D12C01D1082D01D0C1
:105560001220E8E702223146684602F059FE022284
:10557000B11C01A802F054FE0222311D02A802F063
:105580004FFE0222B11D03A802F04AFE684683893D
:105590000289818800880AF0B4FECCE7E803002085
:1055A0006804002070B51A4C1B252068AD01411914
:1055B0000026184B0E720622FF21C01802F034FE9E
:1055C000206820214019C673017408F019FE0128D3
:1055D0001CD01F2021680F4B4919487420680933DB
:1055E00007220021C01802F01FFE0A4B206810336A
:1055F0000522FF21C01802F017FE064B20681B335E
:10560000FF220021C01807F0ECF870BD5F20E1E731
:10561000E8030020C906000000210B2000070268F3
:1056200052070DD5026804239A43026002680823DA
:105630001A43026004E0491C052901DD002070477F
:1056400042689207F7D54168C907FCD0806880B2EC
:10565000704710B5FFF7E0FF0446FFF7DDFF0004D9
:10566000201810BDFEE77047704710B50A888B8878
:105670004C881A43CB88640023431A430B89498919
:105680001A43C9030A43C26010BD816370470174A5
:10569000704701688022114301607047006B084029
:1056A00000D00120704740690007800F704700005C
:1056B00070B5044600680D46400840002060206830
:1056C00003214903884369798907490C084320600D
:1056D000687922494000085A2968214A4843101A2B
:1056E000204A3026914209D84900FBF743FD216842
:1056F000B14321606168320389B20EE01A4A9142D7
:105700000DD84A008918FBF735FD2168B1431031E7
:1057100021606168012289B2520489186160616860
:10572000EA88890A890211436160218D20852068F9
:105730000621884329798907490F08432060297A7F
:1057400008200129216806D08143216020680121B9
:105750000843206070BD0143F7E70000D00200203D
:105760000024F400A0860100801A0600007E704725
:1057700003490160002101714171C18001727047CC
:10578000881300000068000601D501207047022040
:1057900070470000F0B5454C052526686D0270196C
:1057A000406C0027416B4248AE368DB0814242D0FA
:1057B00006216846FFF7D2FD69464879C0210843B3
:1057C00069464871206806224019406C2430FFF772
:1057D0009BFD0746102105A8FFF7C0FD2068102299
:1057E0004019406C05A9001DFFF78EFD07431021ED
:1057F00009A8FFF7B3FD206810224019406C09A9E1
:105800001430FFF781FD0146394313D1206829493F
:105810004019406C264F401880088100264808181F
:1058200039460490FDF7F6FA04980068B84201D1B1
:10583000002700E0FB2722685019406CA632243074
:105840000190062001460090002009F04EFA002841
:1058500002D12068A6300190701D009A019902F0D3
:10586000DFFC2268102631460020803209F03DFA24
:10587000002807D0206832464119496C8030091D44
:1058800002F0CEFC226831460020903209F02DFA59
:10589000002807D0206832464119496C90301431F5
:1058A00002F0BEFC38460DB0F0BD0000E803002059
:1058B000AAAAAAAA3400FCEF0000041030B50F4BCE
:1058C000E3251B68ED005B19403304461B7A412039
:1058D00085B09B0710D56B469981DA81002018822C
:1058E0000420588203AA04A96D4607C502231A465C
:1058F00001212046FFF758FA05B030BDE80300202B
:105900001FB500216A461173124C134A6261104898
:105910007D2320616A4653700D2313709170D170FE
:1059200011710221917153710121D1711172517262
:1059300001686846884701220D2103A805F098FAFE
:1059400020698168054888476069006880471FBDF5
:105950001003002084030020500300203C0400209A
:105960001CB510206A461070042111710820D070F7
:1059700001205071507003489170C06801686846FA
:1059800088471CBD84030020024600200146535C6A
:10599000002B00D00120491CC9B20629F7D370475B
:1059A000024800682030C07F70470000E8030020F4
:1059B00070B50E46054601462022002002F0E8FCA4
:1059C000040023D0284600F059F8050027D0287994
:1059D000B04224D1A87880071FD4A06801210173A8
:1059E000A06800214673A06802268673A068C17370
:1059F000A0680174A06841740620E080214605205B
:105A000000F098F9002803D0412509E064250BE057
:105A1000A8783043A870002506E0462500E042251E
:105A20000021204602F010FD284670BD70B51446D6
:105A30000D4600280BD11146284604F0B9FD214639
:105A40002846FFF7A1F82146284600F0A3FA70BDCA
:105A500070B505460C46002000F010F800280BD069
:105A60002905090D018000218170002C01D1082138
:105A7000817001210171C17070BD000030B5024616
:105A80000A4811230068DB010021C318A030047B01
:105A900007E0586E0D0140190588954204D0491C55
:105AA000C9B28C42F5D8002030BD0000E8030020C8
:105AB00030B50A49112309680246DB010020CB18E2
:105AC000A031097B07E05C6E0501641924889442CB
:105AD00003D0401CC0B28142F5D830BDE80300209D
:105AE0008068017A407A0002081880B2704700008E
:105AF00070B50023134A1DE01125ED01401919016D
:105B0000466E0024C81C345410684019466E081DA7
:105B1000345410684019406E445210684019466E63
:105B200008460830345210680C314019406E5B1C36
:105B30004450DBB21068AC21095C9942DCD80020EB
:105B400070BD0000E803002010B5024688680C46CE
:105B5000817AC07A0002081881B2E088001FE080D4
:105B6000042909D005290CD006290FD0012120468F
:105B700002F06AFC002010BD21461046FEF704FF2B
:105B800008E02146104600F02BF903E021461046BC
:105B900004F094FC0028EED0E188091DE18010BDDE
:105BA000F3B581B00D4600268888FFF767FF070030
:105BB0002FD03C46287B08340228F8682ED00028D5
:105BC00034D0E888218840182080284602F0B6FBAF
:105BD00061688A680146104602F063F80121284690
:105BE00002F032FC0120616802F068FB6068FFF798
:105BF00077FF001D218880B281421FD881421BD1CE
:105C00006168C88061680198FFF79EFF06000FD0A9
:105C100017E00121284602F017FC12E0002801D00D
:105C20004526E3E76560E8882080DFE7656005E0FA
:105C300000206060208004E0452E02D1384600F04C
:105C4000BBF93046FEBD024610B50020002A05D043
:105C5000012A02D11046FFF7A3FF10BD1046FFF73F
:105C600073FF10BD70B50546801E0C46030006F09C
:105C700054F80A0C1C1C06180B0B0B0B060B0A46DF
:105C800020782946FFF7D2FE70BD2846FEF77CFF3C
:105C90002146284604F08CFC2146284600F07AF97B
:105CA00070BD284604F084FC70BD628809782846DF
:105CB00004F07AFB70BD0000F0B585B0FFF7F8FE88
:105CC0001B4D04462868A030007BA0422DD92046F9
:105CD000323069460873684605F05CFC1126286876
:105CE000F6018019426E00212401115328682746CD
:105CF0008019426EE01C115428680C378019426EDE
:105D0000201D115428688019406EC05900280CD0FD
:105D1000012102F099FB296800208919496EC851B8
:105D200029688919496E0834085305B0F0BD000090
:105D3000E803002010B50C460146042805D00529CB
:105D400003D0062901D0502010BDA068A2790272AC
:105D5000E088020AA0684272A0688172A068090AFD
:105D6000C172E088001DE080022020732046FBF70E
:105D70009DFD0028E8D0E088001FE080412010BD94
:105D8000F8B5323801060220144E00901125306813
:105D9000ED010C0D42191B218901526E4118897EBB
:105DA000175B012349070CD5083040191E22022138
:105DB000C06F06F011F9010003D08F80009806F043
:105DC000F7F83168002049194A6E211D5054316896
:105DD0004919496EE41C0855F8BD0000E80300208D
:105DE000F0B50D468DB000210A91A96800280F7BFF
:105DF00002D0012822D0C5E0A888FFF759FE634EE3
:105E000004463068A030007BA04215D9122F08D17B
:105E10005F4802902046323069460873684605F0B4
:105E20006BFB11203168C0010818406E2101401839
:105E30008178FD22114081700021A0E0A888FFF741
:105E400037FE06465148AC220168525CB24218D96E
:105E50001120C0010818406E32018418A278100782
:105E600010D5122F10D1500710D4A9882A464220ED
:105E700006F054FCA07804210843A070A868407B79
:105E800020717BE0132F0AD0012F42D0A868417BFC
:105E9000A888FFF78DFD0A9000286FD072E0A868EF
:105EA000E778437BBB4269D1520767D5027C407CCF
:105EB00001230002101887B242200490A88806909F
:105EC0001B2080010818807E800710D51120C0019A
:105ED000083108181D22C06F049906F07DF80100F2
:105EE00005D0069A8A80CF80049806F061F8A078E1
:105EF000FB210840A070E078401C0006000EE07016
:105F000001D10120E07068463236067305F042FB8D
:105F100034E0100732D4A868E178407B88422DD164
:105F200050072BD5FB200240A270E078401C0006F1
:105F3000000EE07001D10120E07068463236067331
:105F400005F028FB114811210068C90108304018EC
:105F50004224AE8820220223C06F214606F03CF87E
:105F600001000BD0A868437B877BC07B8E8000023A
:105F700038188B710881204606F01AF8012128464E
:105F800002F062FA0A980DB0F0BD0000E8030020AC
:105F90003075000010B5022809D0052801D00B2863
:105FA00008D1084609794088FFF752FD02E0488889
:105FB000FFF782FE002010BDF8B50546807810215D
:105FC0000843A87042200090114811210068C901BF
:105FD00008304018012702263B462122C06F009955
:105FE00005F0FAFF04000AD027716671324629468F
:105FF000A01D02F015F92146009805F0D9FF0121F6
:10600000E86802F021FA0020E8602881F8BD00006D
:10601000E8030020FEB50F460646002408F00AFA01
:10602000054608F079F9082D01D3082811D202A9F4
:10603000684600F089FA002F684606D0407940068D
:1060400001D5022102E0032100E0017AB14200D033
:1060500041242046FEBD0000FFB507468DB000205C
:106060000890079073481E460168734815460C183F
:106070001120800108184775C275002B01D000213E
:1060800001750E9800287DD0FFF77EFC002879D09E
:10609000002E03D020342079012873D0FF24002E55
:1060A00007D0022D02D0032D02D002E0002500E02F
:1060B000012560486149006840180B90022F01D00B
:1060C000032F66D1684605700622401C0E9902F027
:1060D000A7F86946002002F015FAFF2803D00B99B3
:1060E000C2005118CC795349002E0A68544910D087
:1060F0005118CC7200220A75FF284AD0362044433A
:106100004C48FF2100682F312018095C002903D07A
:1061100014E05118CC71EFE70146FF31FF304731F1
:106120001F3002F0BDFA4348062200682118FF31F3
:1061300005A8483102F074F8012007903D49FF227C
:1061400008684E322018125C002A19D10146FF312E
:10615000FF304031303002F0A3FA364806220068A2
:106160002118FF3103A8413102F05AF801200890AC
:10617000002E05D02F480121026831481018017502
:10618000079800E010E0002803D03246012105A85E
:1061900002E0324629460E9800F01AFD08980028C1
:1061A00002D0012103A811E0002F06D0012F1AD040
:1061B000022F02D0032F07D115E01E4806220168E6
:1061C0006846783102F02CF80021684600F06AFD3C
:1061D0000124A402002F10D0012F16D0022F0CD0C2
:1061E000032F24D111E0134806220168154809182D
:1061F000684602F015F80121E7E70E480068816F54
:10620000041909027B30E1640CE00A4805680D4876
:106210002818FBF705F800022C19401CE064094817
:10622000C01C2818FAF7FCFF0002000A20650020B5
:1062300011B0F0BDE8030020080900005C04000074
:1062400040040000DE06000000207047F0B58F4DCE
:1062500004468F49286885B04018019008F05CF822
:1062600005267602002C7DD008280DD34220074653
:10627000039088480024029008F0B8F800900820A5
:1062800004900098082802D30C2005B0F0BD00F05F
:106290005BFC00F04BFB00987F49800142182868A6
:1062A0008019018E01988030036BC0315980016BD9
:1062B00009800021C94301820021456ACB1DEF54AA
:1062C000856AEF54C56AEF54056AEF54066B039D67
:1062D000F554039B3F0A1B0A0393466A029D0B1D5C
:1062E000F554866AF554C66AF554066AF554066B89
:1062F000F554029B491C1B0AC9B202930329DCD343
:10630000009911234907090E456A0B43AB72856A50
:10631000AB72C56AAB72019B1D7E0223022D0BD1AD
:10632000456AAE7A1E43AE72856AAE7A1E43AE727D
:10633000C56AAE7A1E43AE72466A0127F772866A54
:10634000F772C66AF7721943036B9972036A9972FE
:10635000036B0321D972016ACF7200210B4653549B
:10636000551800E04CE06B71491CC9B20529F6D301
:106370008025957201992031CE7BD672868C16824B
:10638000068E5682454E9661454ED6613E46202782
:10639000BE54D375019A127E002A04D0012A04D07B
:1063A000062A12D110E018240FE003228368282463
:1063B0005202934209D1C368934206D1002204924B
:1063C000FF225632028200E01024497B002904D0CB
:1063D000012904D0022906D103E0C02102E02C43A8
:1063E00001E040210C430499C268090280685318F7
:1063F0004218E108C900491C00980AF063F944E713
:1064000072B608280AD22A6891194B69582141436B
:10641000891C5C5C6407640F012C01D062B633E711
:10642000F024A45C002C04D01126FF24B60192199C
:10643000D47100225A54452329685B01CC18267B6D
:10644000012383409E43267362B60446124E0C3EDF
:10645000308808230007000F1C43A04214D18A6330
:1064600000F060FC012801D106F0D4FD0D49286838
:1064700032881207120FA24206D1826B8A4203D2DF
:10648000826B521C8263F3E70020FEE6E8030020E3
:10649000080900008100B000CC000020D6BE898E23
:1064A0005555550000710200FFB50C4691B00146EC
:1064B000102204A801F0B4FE1022214608A801F021
:1064C000AFFE04A8009008A801900CA80290002636
:1064D0006846067318481949006809274518FF06D9
:1064E0002C46803472B66846007B002808D062B61D
:1064F00010220CA9139801F093FE002015B0F0BDF6
:10650000286D3969401A0E4900020988000A0907F6
:106510000BD51499002908D10A49FF38884204D3C1
:1065200068460673606430BF03E06846666407F03F
:1065300069FE62B6D6E70000E80300200809000003
:10654000C000002002FF7F0070B5044608480D46D9
:106550000068084946182046316808F0CBFA72688E
:106560002271100A6071100C2870002070BD0000AC
:10657000E80300200809000070B50D46044607F046
:10658000CBFE082801D31F2070BD094809490068C7
:1065900040180022416B931CC95CA154521C062A6E
:1065A000F8DB406B00784006C00F2870002070BDFB
:1065B000E80300200809000010B504460348807A6B
:1065C00007F0C0FD2070002010BD00000001002079
:1065D000F8B50C46054607F02DFF082801D31F200B
:1065E000F8BD0A4E052730687F02C019406B0622AD
:1065F0002946801C07F09DFD3068C019406B00786B
:106600004006C00F20700020F8BD0000E803002005
:10661000F8B55B4F5B483D6800222818014605230A
:10662000027620315B020A73ED186E6B28368663A2
:106630006D6B544E503545630835856207258D7363
:10664000416B0A70456B062169703C68E1184D6B1F
:106650007835C563496B0825A03101640146C03116
:106660004A720A72CD738D731B250D82FF25493541
:106670004D82FB258D82C03ECE820D834E834249E2
:106680006265216501463C462668B518F618776BA9
:10669000603516462D7E2A36BD552668F618776B6E
:1066A00016465236BD552668F618776B16467A366A
:1066B000BD552668F618776B1646A236BD550D7087
:1066C000521CD2B2491C062ADED300250D70826B03
:1066D00006215170426B5170024680325561294645
:1066E00095611BE005256D025B1958254D435F69D7
:1066F0002B46264E0A33FE52052327685B02FB1801
:106700005F692B4600262033FE50052327685B0275
:10671000FB1824355B69491C5E51C9B22368AC255E
:10672000ED5C8D42DED8002501219583C9020184EC
:1067300055640520216840020918898C936B891CD7
:10674000598021680818808C516B801C4880104843
:10675000818D206840300186FBF79CFC4521206834
:106760004901411823220D73920108218018817478
:1067700000F010F809F0A0FE20682030C574F8BDC4
:10678000E803002008090000862E0000FFFF00003B
:106790004804002010B5084C5D2320681B01F82236
:1067A000FF21C01801F040FD17222168002092014E
:1067B0008918087310BD0000E803002010B50446D6
:1067C0008088032107F0CCFD022172B6082815D27B
:1067D0000D4A1368052252029A18582352695843E9
:1067E000831CD35C002B09D0002110182160016AA2
:1067F000002906D0416A0C604521446262B6084611
:1068000010BD0462F8E70000E8030020F8B5064672
:1068100024480F46006824494418052149024018BD
:106820004169582070430D18304608F06DFA002871
:1068300016D02046CF30CC3472B602780121B14058
:10684000082A02D36A7992070ED06879800726D485
:10685000144800682030C27D0A43C2753A201FE008
:106860002046CE30CA34E7E77A06104B5208D218D9
:106870006B6B1A603A0601D4132200E012226B7986
:1068800013436B710670288B2080403505486F7567
:1068900000682030C27D8A43C275002000E00C20D1
:1068A00062B6F8BDE80300200809000003020200F8
:1068B0001F20704770B51B4A1B4B1268D418E36B3E
:1068C0000833A3621F2901D9302070BD0022656BF7
:1068D000E66BAD5CB554521CD2B2082AF7D3002245
:1068E00005E00578521C1D70401CD2B25B1C8A4228
:1068F000F7D32C200155E06B891D417007F00CFD8A
:10690000217E01290CD008280AD2616BE06BE1637B
:1069100060638034616A4880A16A4880E16A488087
:10692000002070BDE80300200809000030B53148A0
:10693000314900684018416B037E0A781B079209B1
:1069400092011B0F1A430A70C16B037E0A781B0762
:10695000920992011B0F1A430A70816B0A789209FF
:106960009201121D0A70016C0A7892099201121D9F
:106970000A700021024620320BE0836A456B5C5CA2
:106980000B460833EC54846AC56B645C491CEC54B8
:1069900089B2137B8B4201D91F29EED3017E0129D5
:1069A00007D0D9B2426B891D5170416B08318162A9
:1069B00030BD0346C26B1033083281688262446B7B
:1069C0000C22627000221546446B0835615519701F
:1069D000090A5B1C032A00D1C168521CD2B2062AE4
:1069E000F1D3406B02785206520EC9010A4302707D
:1069F00030BD0000E803002008090000F8B5504F42
:106A0000064650493868451807F086FC082812D118
:106A100007F010FD082803D02320405D02280AD08B
:106A2000386834462030807D0934000700283079EA
:106A300003DB032803D00C20F8BD012804D0204636
:106A4000FEF7A2FF002806D0327AF0790023214613
:106A5000FFF702FB0BE00023F0791A461946FFF717
:106A6000FBFA11223968FF2092018918C8712C465F
:106A70008034216A288F48803079012821D03088DD
:106A80000002A06070880002E0600020C043208205
:106A9000307902281CD003281CD004281CD00128DF
:106AA0001AD0052800D3FF20287628462030B17957
:106AB000417371790346817327200022CE070FD0DE
:106AC00011E003204002A060E060FF205630DEE7C6
:106AD0000620E9E70220E7E701200021B171E3E7A2
