:020000041004E6
:100000000060002069AB04108F8C0410915F041015
:10001000AA5555AA45554C420000000000000000BA
:1000200000000000000000000000000059C904109A
:10003000000000000000000027A4041001D20410FA
:100040009D3F04105D8D04100000000000000000C2
:100050000DD6041065C804101D21041071D70410BA
:100060000000000000000000000000000000000090
:1000700000000000A5040410955F0410935F0410B5
:10008000000000000F880410118804101388041069
:100090001588041089AB0410B98D0410B126041022
:1000A0000000000000000000000000000000000050
:1000B0000000000000000000000000000000000040
:1000C000EFF31482EFF309811C4880F31488BFF327
:1000D0006F8FF0B543464C4655465E466746F8B4CA
:1000E000174CEFF30883236006B4164C2068164CB7
:1000F0002060164C2068164C2060164C2068164C68
:100100002060164C276800202060BFF34F8F30BF5F
:1001100027600B4C246884F3088882B003BCF8BCC9
:100120009846A146AA46B346BC46F0BC04BC80F340
:10013000098881F31488BFF36F8F10470000000017
:100140000800002004ED00E02C03002024ED00E076
:100150003003002000E200E03403002008002040CB
:100160000348854600F050F900480047F546051061
:100170000060002030B50B460146002020220124FB
:1001800009E00D46D5409D4205D31D469540491BCB
:100190002546954040191546521E002DF1DC30BD14
:1001A00010B5441A0346944209D28318891803E013
:1001B000491E0C785B1E1C70521EF9D210BD0C46F5
:1001C0000443A40703D009E010C9121F10C3042A76
:1001D000FAD203E00C781C70491C5B1C521EF9D249
:1001E00010BDD2B201E00270401C491EFBD2704724
:1001F0000022F6E710B513460A4604461946FFF7F3
:10020000F0FF204610BD30B504460020034600E054
:100210005B1C934203D2E05CCD5C401BF8D030BD48
:100220000321001D401E037812021A43491EF9D50E
:1002300010467047024670B54A40D30FDB074000B6
:100240002DD04A002AD0010E140E00021202091904
:10025000400A520A8418E50104465443000A120A6F
:100260002E045043A4194219200CC543AA18120C9D
:100270000125AD03521C521912047F39240400D009
:10028000521C104301D44000491EC2B20C06C009E2
:100290002018401C4008802A02D003E0002070BDD6
:1002A00040084000002900DA0020184370BDC21742
:1002B000C10F504010B54018CA079623002100F026
:1002C00069F810BD10B500229623114600F062F8BF
:1002D00010BDC20F410040020123400ADB05D207D6
:1002E000090EC0187F2901DA00207047962903DC27
:1002F0009623591AC84001E096398840002AF4D064
:1003000040427047F0B51FB40646002082B0054653
:100310004024019100901BE0019922460F4630468F
:1003200000F084F8049A059B801A994110D3104676
:100330001946224600F016F8361A8F4101972246D8
:1003400001200021009F00F00DF838184D41009069
:100350002046641E0028DFDC019B009829463246B7
:1003600007B0F0BD10B5202A04DB0146203A9140C9
:10037000002010BD914020239C1A0346E3401943FE
:10038000904010BD002904DA401C490001D140080A
:100390004000704770B40024050C05D110240004FF
:1003A00002D1002921D01124050E01D10002083408
:1003B000050F01D10001241D850F01D18000A41C6F
:1003C000002801DB4000641C002908D020252E1BDA
:1003D0000D46F540A14000D0012129430843010604
:1003E0001B1B000ADB1D02D5002070BC7047DB051B
:1003F000181880180029F8DA401C4900F5D170BCA3
:100400004008400070470000064C0125064E05E0FC
:10041000E36807CC2B430C3C98471034B442F7D325
:10042000FFF7A2FEB08005104081051010B5202A0C
:1004300004DB0846203AD040002110BD0B46D340D3
:10044000D0402024A21A91400843194610BD70B52F
:100450008C180578401C6B075B0F01D10378401C9A
:100460002A1106D10278401C03E006780E70401C69
:10047000491C5B1EF9D12B0705D40023521E0DD455
:100480000B70491CFAE70378401CCB1A921C03E05E
:100490001D780D70491C5B1C521EF9D5A142D8D3A2
:1004A000002070BD7047F0B50F46B5B0154600216D
:1004B00030AA0F23445C5E1A491C94551029F9DBBD
:1004C0001022694630A800F013FB0026B400E019A2
:1004D000401CFFF7A5FE395D000208430321891B7C
:1004E00089002CAC761C6050042EEFDB21461023D3
:1004F0006A46084600F0C6F900200326311A890032
:10050000635C8200AB54635A52191B0A53706358E0
:10051000401C1B0C93706158090ED1700428EDDB50
:1005200035B0F0BD70B5BAB0054600200C4600905D
:1005300020206946087210200A9038901E460392C7
:1005400001A800F085F92246294601A800F008F824
:100550006A46314601A800F045F93AB070BD000086
:10056000F7B592B00F46040004D0002F06D11498BE
:10057000002803DD6120400115B0F0BD149800286B
:1005800004DB102804DA2079800601D49448F3E7CC
:100590002079410701D4810702D59148401CEBE73F
:1005A0004021084320712046143000250F9014305C
:1005B00001901EE00026B00004904019C01903907D
:1005C000FFF72EFE00BA010A03980902C07807AAB5
:1005D00001430498761C0019406941400498042E98
:1005E0001150E8DB636A07A8019A0F9900F07CFAC2
:1005F000059D28461030059014998842DADB207951
:10060000800620D400291EDD0026B0000490401989
:10061000C0190390FFF704FE00BA010A039809020B
:10062000C07807AA01430498761C0019406941402C
:100630000498042E1150E8DB636A07A8019A0F9909
:1006400000F052FACAE000200B900C900D900E9032
:100650000BA9636A0846019A00F046FA0B988721B5
:10066000C00F48430B990C9A4900D20F11430B91CC
:100670000C990D9A4900D20F11430C910D990E9AC5
:100680004900D20F11430D910E99149A490041402F
:10069000284610300E9190421CD10026B0000290E6
:1006A0004019C0190490FFF7BBFD00BA010A049875
:1006B0000902C0780BAB01430298761C001942690D
:1006C0000298185842405140029807AA1150042E2F
:1006D000E4DB79E00B988722C00F50430B9A0C9B08
:1006E0005200DB0F1A430B920C9A0D9B5200DB0F4A
:1006F0001A430C920D9ACB0F52001A430D924A00E6
:10070000424014980E92401B0390C017820F03982A
:10071000002610188010029019E0B00010904019C7
:10072000C0190490FFF77CFD00BA010A0498090281
:10073000C0780BAB01431098001942691098185803
:1007400042405140109807AA11500298761CB042BE
:10075000E3DCB00001190BAA49691258514007AAFD
:100760001150039B00211B1A42199C4696460BE030
:1007700072465218BA5CCD0018235B1B9A4007AB37
:100780001D586A401A50491C8C45F1DC002909D0DB
:10079000CD00182107AA4D1B13588021A9404B40BA
:1007A000135005E007A90A580123DB075A400A50F5
:1007B00007A90BAA05E0B00003195B6915586B4047
:1007C0000B50761C042EF6DB636A07A8019A0F997A
:1007D00000F08AF920790421084320710020CBE63B
:1007E0001D0C0000F8B516460F46040009D0002E77
:1007F00007D025468035E86D401E102804D31348E5
:10080000F8BD61204001F8BD2079400604D40022E3
:1008100011462046FFF7A4FE2079022108432071EB
:10082000002018210CE0C217920F121892089200B3
:10083000121983075269DB0ECB1ADA403A54401C76
:10084000EA6D8242EFDC00203260F8BD1F0C000030
:1008500010B5040007D002230022A16800F00CFAB2
:10086000010003D00CE06120400110BD1020206188
:100870000020024683001B19401C5A610428F9DB42
:10088000084610BDFFB5D908490083B0891D029103
:100890000368116854684B404168956861408468FA
:1008A000C0686C40A446D4681E0E60408B4CC5B234
:1008B000A65D655D3606354367460E023F04360E7B
:1008C0003F0EA65DE75D36043F023E433543AE462C
:1008D0000F0EDDB2E75D665D3F063E4365462F02C3
:1008E00005043F0E2D0EE75D655D3F042D022F438D
:1008F0003E43CDB20096665D65462F0EE75D1D0452
:100900003F063E4307023F0E2D0EE75D655D3F0447
:100910002D022F433E4301966546EDB2070E665DFC
:10092000E75D0D043F063E431F023F0EE75D2D0EBF
:10093000645D3F0424022743029C3E43641E103240
:100940000294002C63DD664C7046204043007046E4
:100950006449C00908401B21484343407046584041
:100960001821C841434070461021C8414340704699
:100970000821C841434010685A4D43400098594FE0
:10098000204041000098C00928401B256843414091
:10099000009818254840E841414000981025E8415A
:1009A000414000980825E84141405068019D414080
:1009B0000198ED0920403D4040001B277D436840E1
:1009C000019F05467D401827FD416840019D102785
:1009D000FD416840019D0827FD41684095686840D9
:1009E0008446304620403F4DF4092C4040001B25F2
:1009F0006C436040044674401825EC41604010246C
:100A00003546E54108246840E64170404BE7334CE9
:100A1000C5B2665D1D0E645D240626430C02250EDC
:100A20002E4C645D65462D042F0E2C4D2404ED5D87
:100A30002D022C432643294C0096DDB2655D0E0E37
:100A4000A45D2406254364462402260E234CA45D9F
:100A50000604370E214E2404F65D36023443254346
:100A6000AE461E4CCDB2645D65461C4E2F0EF55D44
:100A70002D062C4305022F0EF55D1F042E043D0E9E
:100A8000164F7F5D65463F023E433443EEB2134D41
:100A9000AF5D050E1148405D000607431802030EC6
:100AA0000E48C05C09040B0E0C490004C95C936835
:100AB0000902084307431068009E63405168049C84
:100AC0007040D2682060754604986940416004987F
:100AD0007A4083600498C26007B0F0BDD47E0510F0
:100AE0007F7F7F7F0101010100B5FFF7CBFE00BDD5
:100AF000F7B50298860800240DE00098A7003D187D
:100B00002846FFF78DFB00BA000AE9780002084387
:100B10000199641CC851B442EFDB0199029A08465E
:100B200000F002F8FEBD0000F0B59208002303E0DB
:100B30009C0005590D515B1C9342F9DB4D4FF81F8A
:100B4000F938042A48D0062A6DD0082A43D1002358
:100B5000CA6915022D0E140E455D045D2D062C4349
:100B600015042D0ED2B2455D825C2D041202154390
:100B70002C439D007D590A686A40544001225B1C49
:100B80000C62940065180C59EE69521C66402E6286
:100B9000042AF6DBCA6A150ED4B2455D045D2D0643
:100BA0002C4315022D0E1204455D120E825C2D049D
:100BB000120215430A692C43544005220C63940029
:100BC00065180C59EE69521C66402E62082AF6DB45
:100BD0002031072BBCDDF0BD0022CB681D022D0E9D
:100BE0001C0E455D045D2D062C431D042D0EDBB24D
:100BF000455DC35C2D041B021D432C4395007D59AC
:100C00000B686B405C400123521C0C619C00651812
:100C10000C59EE685B1C66402E61042BF6DB10312C
:100C2000092ADADDF0BD0022CB681D022D0E1C0E54
:100C3000455D045D2D062C431D042D0EDBB2455D84
:100C4000C35C2D041B021D432C4395007D590B688A
:100C50006B405C400123521C0C619C0065180C59D0
:100C6000EE685B1C66402E61042BF6DB1831092A06
:100C7000DADDF0BDD47F0510F8B59E468C4600281D
:100C800007D0002905D059078C0F002A04D1012C68
:100C900002D061204001F8BD416A102903D0182913
:100CA00001D0202905D1012C05D00169491E102948
:100CB00001D31E48F8BDC2600179F92319400171C2
:100CC000012C20D000210B468D002D18491C6B6192
:100CD0000429F9DB0021182712E0CB179B0F5B18C2
:100CE0009B089B001D182B46143300938B07565C02
:100CF000DB0EFB1A6D699E403543009B491C1D604D
:100D000003698B42E9DC0179C9070CD16146816036
:100D10007146C90701D0032C05D10146426A28312A
:100D20006046FFF7E5FE0020F8BD00001F0C000044
:100D3000F8B51A4C20780025002802D00CF028F9CC
:100D40002570E0680126164F00281DD02069002874
:100D500012D1607800280FD01920C001C82200905D
:100D600000231146A0880EF07FF8A0880DF0DCFE6D
:100D70002661E068002807D000200BF082FE38785A
:100D8000012801D102F052F9064C2078012803D144
:100D900002F092F825703E70F8BD0000500300206C
:100DA00072030020730300207FB505469868012276
:100DB00002739A681C4651739868022202A90E3089
:100DC00007F0D1FFA16805200D74E0807FBD000011
:100DD00010B508480C460068E321C9004118A06816
:100DE00002220273A0685C310D3007F0BCFF0320C3
:100DF000E08010BDCC03002070B5064608881D4673
:100E00000C46001D81B213460222304608F07AFAE1
:100E100021882B46891C2180091D89B20222304677
:100E200008F070FA2088801C208070BDFEB5002478
:100E30000E462746056845E028680290A968022208
:100E400030460D3107F08FFF3088B84209D087B2A5
:100E5000384603F05BFE014601AA384604F0DCFD8B
:100E6000019CA968022268460F3107F07CFFE888E0
:100E7000401F81B22220005D002806D001280BD03F
:100E8000002811D0012814D01BE0E08B6A4612889C
:100E9000401E904206D307E0208C6A461288401E0E
:100EA000904206D20720FEBD684600880818E18BF4
:100EB00003E0684600880818218C884201D90D207B
:100EC000FEBD029D002DB7D100203080FEBD000088
:100ED00000B5818887B049426A461174091251747D
:100EE00001789174018801230912D174017A494271
:100EF00011750089062140420012507500200190B2
:100F000004AA0A4800910392029182880188084845
:100F100000880DF055FF010005D006A00CF0E8FE9A
:100F2000472007B000BD0020FBE700004003002081
:100F3000540300204572726F72207768696C6520D7
:100F40007570646174696E6720416363656C657276
:100F50006174696F6E206368617261637465726940
:100F6000737469633A203078253032580A000000E3
:100F7000FFB5C8880025401E83B00E4687B2012405
:100F800027E0B0680222083001196846091D07F001
:100F9000EAFE6846008803F0B9FD01001DD06846EE
:100FA0000A8D0088824212D001AA04F035FD002883
:100FB0000DD101992620405C400708D506986A00AB
:100FC000101802221C3107F0CEFE6D1CADB2A41C1D
:100FD000A4B2BC42D5D30C98058007B0F0BDFFB5D4
:100FE000074683B0002000900D9803F08FFD054662
:100FF00006980C300190002D26D00837BD4223D032
:10100000288D0E9988421FD80D99884213D30E99C6
:10101000884210D8294602222A31019807F0A3FEFF
:1010200010220C99069807F09AFE002809D0298D05
:101030000E98814208D02E462C6A2036B442DDD06C
:101040003EE005980021018007B0F0BDA08B0D990E
:10105000884234D30E99884234D8204620300290FA
:10106000C078012808D02046083010220C9907F0DB
:1010700076FE002808D022E021460222083101989D
:1010800007F071FE0698F0E702988079400716D5C0
:101090000098002801D1E08B0090E18B814211D1B2
:1010A00005980222008841000498081821461C3146
:1010B00007F059FE059805990088401C08802468AF
:1010C000B442C3D12D6899E7064800210268052083
:1010D000400210180173417303218173C173002012
:1010E00070470000CC03002070B50D4D044611215F
:1010F0002868C9014018902601231A46C06F31465E
:101100000DF074FA010003D030464C600DF05AFA2D
:101110000520296840020918087B401C087370BD2F
:10112000CC03002010B5044600202082A074A168E2
:10113000A16161612060204606F004F9452801D0D4
:10114000412010BDA08803210FF0B2FD044610F02D
:10115000ADFC002812D072B60948012201684F2068
:10116000400109184879A2401043487162B6002036
:1011700014F034F8002801D00EF030FB002010BD30
:10118000CC03002070B5C17C0E4D4906490EC174D8
:10119000044611212868C901401890260123002225
:1011A000C06F31460DF022FA010003D030464C608A
:1011B0000DF008FA0520296840020918487B401CF8
:1011C000487370BDCC030020F0B58BB01B256A4678
:1011D0001576C5245476D5209076A526D67602219C
:1011E000117700205077B42090779A20D077E120B3
:1011F00008AA1070112050703A209070CF20D07043
:10120000802010716E20507136279771D171102295
:1012100006A9464807F0A7FD45480090062301228D
:10122000424902200DF08BFB002870D168460576FC
:10123000C5214176D5218176A521C1760226067782
:10124000002444778777AC21C177E12108A8017099
:10125000112141704B218170CF21C170802101711A
:1012600045710A2181713421C1713048102206A9CB
:10127000103007F078FD2E491020091D05912B4AEA
:101280002B4F029403900494019400901223103287
:10129000022138880DF034FB002838D169460D76DC
:1012A000C5204876D5208876A520C8760E774C775D
:1012B000DF2088774F20C877E12008A90870112027
:1012C000487013208870CF20C87024200871CC206B
:1012D0004871412088712C20C8711448102206A939
:1012E000103007F040FD39460831102001220292EB
:1012F000059103900C200D4A04940194009014234E
:101300001032022138880DF0FBFA002805D009A020
:101310000CF0EEFC47200BB0F0BD3B89BA88398851
:101320000D480CF0E5FC0020F5E700005404002017
:10133000400300204572726F72207768696C6520E7
:10134000616464696E672041434320736572766906
:1013500063652E0A00000000FC7F051010B50848E8
:101360000078002807D10BF0F8FA002803D10BF021
:10137000FEFA002801D0002010BD032010BD00009F
:1013800070030020F8B516460D46074600240BF002
:101390004DF8002806D032462946384601F008F9B3
:1013A000044604E020356879002802D00E24204647
:1013B000F8BD2879C10701D1012E09D0810701D4D8
:1013C000022E03D04007F2D4042EF0D10324EEE71E
:1013D0000224ECE77FB50546684600890C460028E4
:1013E0001AD0A0680C210173A068022202A90D3056
:1013F00007F0B9FCA068022203A90F3007F0B3FC84
:101400000520E080212128698901084328610D20F9
:10141000A873002004B070BD4220FBE77FB50546ED
:10142000684600890C9E0C46002816D069468989BA
:10143000884212D8A06808210173A068022202A97C
:101440000D3007F090FCA068022203A90F3007F0CE
:101450008AFC012E04D0022E0AD0422004B070BDB6
:10146000A068022208A9113007F07DFC072006E0E1
:1014700008AB10220921204607F044FF1520E08028
:10148000212128698901084328610920A8730020C7
:10149000E4E70000034900280A7801D00020087022
:1014A00010467047D003002070B5124C0E462178CC
:1014B000012500291BD10146012007F03FFD607086
:1014C0003146022007F03AFD6178401860703146DD
:1014D0002031032007F032FD617840180006000E2D
:1014E000607004D107F0A2FD02202070002528467C
:1014F00070BD0000D003002070B5184D90B0287862
:10150000002802D0012010B070BD6E46002404F007
:1015100036FDA100641C7050082CF8DB69460120E0
:1015200007F00CFD0128F1D020220D496846FEF796
:1015300037FE0B492022203108A8FEF731FE69460C
:10154000022007F0FBFC08A9032007F0F7FC07F0D6
:101550006DFD012028700020D5E70000D003002099
:10156000647E05107EB5044616460D46684604F0B6
:101570009BFB684603782370407828706846807823
:1015800030707EBD70B500210C4A03E0535C491CED
:101590005918C9B2535C002BF8D1CE1C0224352552
:1015A000202E04D2545451184D708870CB700449C9
:1015B0000C704D708870CB7070BD0000340400203A
:1015C0003803002010B50BF0EBFE1E4C47212068BD
:1015D00049014118097B002909D1A0300079C007D1
:1015E00029D00FF065FE01F055F801F07BFA00F00C
:1015F000CBFC2068014640310A78C9798A4319D169
:101600003E21095C002915D10F490A88120711D51E
:101610000922D2061269497A836AC9005918092336
:101620001B02C018806D801A00020012814201DA8C
:101630000EF028F810BD02F035FB03F0C1FA0AF0F5
:10164000E1FCD0E7CC030020C0000020F3B5FFB0E0
:101650008EB0044601A804F027FBFE48007A0590EE
:10166000FD4880880890FD4800685090FC4E00209E
:1016700081008B191B68401C51AAC0B25350082826
:10168000F6D3F848006A4F90F748006A4E90012060
:10169000800701684D9141684C9181684B91C16808
:1016A0004A91016949914169489181694791C169AC
:1016B0000491C16A4691006B4590EC484068EC4942
:1016C0004490C8684390087F4290E948203082885F
:1016D0004192027A4092027B3F92096B3E91017DDA
:1016E0003D91008B3C90E2484030017A3B91017C77
:1016F0003A91017D3991017E3891007F3790DC4825
:10170000603000783690DB4801683591416834914B
:10171000017C3391017D3291D64920310A79319291
:101720000A893092C06A2F90088A00222E90D248EF
:10173000110508180368910079AD6B5045687BABC3
:101740005D50858B7DAB5D50058C7FAB5D50858C8E
:1017500081AB5D50058D83AB5D50C56A85AB5D5037
:101760004C231D5A87AB5D50056D89AB5D50836D71
:10177000521C8BA8D2B24350022AD8D30B200007A8
:1017800000682D90BD4841682A9181682991018A9D
:101790002891818A279181692691017F2591B749F6
:1017A0002031098A2491416B2391816B2291C06B76
:1017B0002190B24840300168209141681F918068B3
:1017C0001E90AF4881881D9101891C91017C1B915D
:1017D000017D1A91018B1991007F1890A948818889
:1017E000179101891691017C1591017D1491018B4E
:1017F0001391007F1290A44801692C9140692B90AD
:10180000A24801681191007A1090A1480068002850
:101810002ED000200090002014219E4A41438918B8
:101820004D68820061AB9D500D6859AB9D508D682D
:1018300069AB9D50CB68401C71A9C0B28B50082881
:10184000EAD38120C00541680E91017B0D91418B47
:101850000B91018B0C91416A0A91816A0991008870
:101860000F900320800780680790032C02D008E0C7
:101870008948CFE70920C0064168032212071143B7
:101880004160864900200968854D50390691854F91
:10189000296004C98300401CFA50C0B22960142892
:1018A000F7D369464879897900010843122805D39E
:1018B0007D480021016008460AF0DCF80920C006D6
:1018C00041687A48016063490879097801229207E2
:1018D0001268520A4A4090437ED101200BF0F0FC7E
:1018E000FEF7EEFB00200BF0EBFC714800780028BF
:1018F00073D0704801210183002181810161084674
:101900000699296081007A58296804C1401CC0B238
:1019100029601428F6D35049089888804F48509978
:101920000160002051AA8100535889190B60401CA6
:10193000C0B20828F7D34B484F9901624A494E98E4
:1019400008628B024D9818604C9858604B989860CC
:101950004A98D860479898614898586149981861A2
:10196000049898620498D8614698D862459818639C
:101970003E49449848603E494398C8604298087779
:101980003B48419A20308280409A02723F9A02730B
:101990003E9A0A633D9901753C99018334483B990D
:1019A000403001723A99017439990175389901767C
:1019B000379901772E493698603108702D4835994E
:1019C0000160349941603399017432990175294954
:1019D000319A20310A7101E02FE1DDE0309A0A816D
:1019E0002F9AC2622E980882002279AD22481105F2
:1019F000081891006E5806607BAE765846607DAE42
:101A0000765A86837FAE765A068481AE765A86846D
:101A100083AE765A068585AE7658C66287AE765A0C
:101A20004C273E5289AE765806658BAE715881655B
:101A3000521CD2B2022AD9D30B2000072D99016083
:101A400011482B994161002181612C9901610B485A
:101A50002A9931E0000020400000104000E100E041
:101A600000E400E000ED00E0000090404000004095
:101A700000003040000040400000A0400000F04066
:101A80000000D0400000E04000E000E000007040B6
:101A9000000C7040080000A051E5CC1A00000410B2
:101AA000D0020020E40300201400002018000020D1
:101AB0000C0000200000104841602999816028999D
:101AC000018227998182269981612599017723993D
:101AD0004163229981632199C1638C4820990160F7
:101AE0001F9941601E998160884924982039088295
:101AF00087481D9981801C9901811B9901741A994D
:101B00000175844A19991140018318990177824817
:101B1000179981801699018115990174149901759D
:101B2000139911400183129901777C481199016042
:101B3000109901727A49009808607A4F002059ADD7
:101B400014214143C919820061AEB6584E60AE58A7
:101B50000E6069AEB6588E6071AEB258CA60401C55
:101B6000C0B20828ECD38120C0050E9941600D99C0
:101B700001730B9941830C9901830A994162099978
:101B800081620F9901800321890707988860664860
:101B9000007A002854D083E0644A1068400637D4A5
:101BA00011686348634B00685D6A4140624E366865
:101BB000B5421AD11268824203D0604800680842D8
:101BC00013D15F4801210068090702465D680A4099
:101BD0000D40AA4209D189105A6808400A40904233
:101BE00016D058480069800712D50921C90608692E
:101BF000554B0209D01C984204D80A691209824246
:101C0000FBD305E0514810180A6912098242FBD142
:101C100069464879897900010843122805D30120D3
:101C200009F028FF4B484A490160032C05D10920DF
:101C3000C006426821078A4342607FB010B0F0BD01
:101C40004548018909292BD30189812928D88E99F2
:101C5000002925D002890921914302D1D96989053A
:101C60001BD402891121914302D1D969490514D4A9
:101C700002892121914302D1D96909050DD4028934
:101C80004121914302D1D969C90406D40189812037
:101C9000884305D1D869800402D524490120086011
:101CA000032C05D10920C0064168220791434160F9
:101CB0002A4905980872032C26D00021002000F044
:101CC00003FD0598C007B8D00BF040FA69460870CC
:101CD00008780B2814D022480088000710D5092165
:101CE000C90608691F4A1268101A0002001200D5BE
:101CF0004042202804DC08692D300A698242FCD960
:101D000019491520087098E70121D7E74000F040F5
:101D10000000D040BFFF00000000E0400000704025
:101D2000000C7040080000A00000904000E200E0BD
:101D30003403002000ED00E03003002000E100E06B
:101D40002C03002000E000E0FFFF0F000400F0FF84
:101D5000CCBCECFC14000020000010480000204027
:101D6000C0000020180000200000C040F7B5074662
:101D7000EFF3108472B600261448067000F066F97E
:101D800005463846FFF7EAFAB84200D3384685429E
:101D900000D228460E4B81005A58521C5A50002837
:101DA00009D001280BD00B49029A0A70019A0A71D6
:101DB0000199FFF74BFC84F310880020FEBD064814
:101DC000017A067230BF0172F5E700000C000020B6
:101DD000D4030020000020400000704010B5837F35
:101DE0000122002492024168082B03D94224914227
:101DF00002D310E0914201D242240CE00146342289
:101E0000064806F0B0FF00F07FF8002801DA482409
:101E100001E00BF0C7FE204610BD0000280900209D
:101E20003EB5174D15482968827F0846A0310A73D0
:101E300000246030047644768476E122C2768022E3
:101E4000027702224277302008704C7002AA01A962
:101E50006846FFF787FB68460078A22201016846C2
:101E6000007A891C0002014368460079000301439F
:101E700028681152A03004713EBD000028090020DE
:101E8000CC03002070B50BF06FFA05F063F907F092
:101E9000ABF9FFF719F904F097FA184C18492068C4
:101EA000184D4018811001202A68C0021018C16620
:101EB000616889080167A1688908416709F0C2FF64
:101EC0001D2029688001228B08180287628B4287B7
:101ED000A28B4286628C82862046203002783B208C
:101EE0004001081882750021017001F01DFD03F00A
:101EF000EFFF0DF0B7FF00F07BFE70BD280900205A
:101F00000000FCEFCC03002070B50025ED430EF07F
:101F10000DFE01282ED0002318490322888BFF24B0
:101F2000401E10438A7F4D3462438218088B282458
:101F300060431218488B3024604312180846203042
:101F400040782C24604310180D4A181884184869EA
:101F5000A0420DD10B4884420AD90D690EF0E6FD6E
:101F6000C1B2284600F086FC00F0B4FD401B251AE3
:101F7000284670BDFF23B533CEE7000028090020B6
:101F800039190000580A0000F8B52C4F3C68206E43
:101F90005C34401C002814D0002529480023C07B55
:101FA00000283ED00926F6062648002D1CD0002128
:101FB0000A460B464169521C994204D1002902D0BD
:101FC00004E00125E9E7204B9A42F2D32160006941
:101FD00060603069A1680002090E000A0906014329
:101FE000A16000F08DF81DE03169A2680902090ABC
:101FF000150E08D0018BC90712D041692160006914
:102000006060E37210E0881A00027D2300121B0357
:10201000984205DD100E00060843A06000F070F83D
:10202000F8BD6360002DFBD003CC13F07DF8FA20DF
:1020300012F050FB39688862F8BD0000CC03002024
:10204000480900200000104888130000F8B5294D09
:10205000002029680A4640321378D279934347D149
:102060004A6E120E44D13E22525C002A40D1431ED9
:1020700021488D6A467A1A460024F600AD190926D1
:10208000F606376900887D1907070120002F06DA58
:10209000F314CB189C6D631B1B021B1228D407275B
:1020A0003F02C9190969CF0103D54A1B1202121256
:1020B0001ED401252D07002B06DA002A0ADA7560E6
:1020C0000E48856003200AE0112000060443746076
:1020D000002A03DB294308460AF0C4FF0220054911
:1020E000096840314A78002A02D000204870032055
:1020F000F8BD0000CC030020C000002040000048D4
:102100000449002008610448012100686030C17161
:102110007047000000001048CC03002010B508F004
:1021200015FC10BD70B524490023086802464032F2
:10213000537613764F225201821853710F222030AA
:1021400082750522184652020C680546A418246BB5
:10215000303523540C68A418246B63550C68303553
:10216000A418246B63550C68A418256B044690349E
:10217000401CC0B22B552D28E6D309688A18106B75
:102180009060044630345460903010600B480C4628
:10219000483403800922427105238371C27103729E
:1021A000418100F00DF8FF2020706070A070E07099
:1021B0001F20207170BD0000CC030020C000002053
:1021C00010B5064801680648406A002803D020225E
:1021D0000EF035FC10BD0020087010BDCC030020AF
:1021E00028090020F8B5069C1F4615460646002C17
:1021F00013D0A06802220D3006F0B5FDE81E82B2B1
:102200003B460721204607F07DF8E580A068012EB7
:1022100005D01D2101730020F8BD4720F8BD1B210A
:10222000F8E770B515460646FFF7ACF80446082DEA
:102230000BD1052C09D130460AF0F8F8002804D05B
:10224000008A4004800F00D00024204670BD242363
:10225000184204D0C81F092803D82032D1710020A9
:102260007047422070470000F1B5FFB08BB00124E9
:10227000600205900027CC4807970168E320C00062
:10228000081803908A98C74D0005000D0AAA05A9F1
:1022900009F0D1FB0690002872D104260AA80599FE
:1022A0004218203AD27F0B2A23D000260020049027
:1022B0000AA88119022201A8029106F054FD68467D
:1022C000818809AB08AA039803F088FB012817D07E
:1022D00002287DD068468088854200D30546844226
:1022E00000D92046044602988078012871D0133620
:1022F0003BE1491E761E36040591360CCFD1D5E759
:1023000008980090002F79D1009902222831029874
:1023100006F025FD00281ED100982030017B029890
:102320008078814217D1012808D1009802990222B1
:102330000830C91C06F013FD002815D002988078DB
:10234000022808D10098029910220830C91C06F012
:1023500006FD002808D00098008DA84200D8054648
:10236000A04200D22046044602990AA88978012991
:1023700007D013360599B6B28E4204D3012707E081
:1023800005E1761DF6E78119022201A806F0EBFCB3
:102390000399009808318E462EE084466946026A09
:1023A0008B8820300DE0918B994203D3012F7DD192
:1023B00099427BD9A94200D80D46A14200D30C46D0
:1023C00012688242EFD10498002817D1604601E0DC
:1023D00015E0BFE0006870450ED0018D994203D32F
:1023E000012F09D1994207D98D4200D30D468C4265
:1023F00000D80C46012F59D17045CED1BAE00898CB
:102400000090002F72D1009902221C31029806F030
:10241000A6FC00281ED100982030C1780298807850
:10242000814217D1012808D1009802990222083070
:10243000C91C06F094FC00281AD002988078022863
:1024400008D10098029910220830C91C06F087FCB8
:1024500000280DD00098808BA84200D80546A042E5
:1024600000D22046044602988078012826D003E056
:1024700002988078012805D013360798B6B2012853
:102480001ED021E0009849490089884216D18A98D7
:1024900000F0A6FF0146009800F084FE0099098C28
:1024A0004843009989694018022200E038E0029907
:1024B000491D06F058FC01200790D4E7761DDCE7A3
:1024C000B61C0020B6B207900598864201D30127BA
:1024D00005E00AA88119022201A806F044FC039A2B
:1024E0000099083209980968944630E01AE0864657
:1024F0006A46938820300DE08A8B9A4203D3012FDD
:102500000ED19A420CD9AA4200D81546A24200D355
:10251000144609688142EFD1049800282AD102E0CC
:102520000120049026E07046006860450FD0028DBF
:10253000016A9A4203D3012F09D19A4207D99542E1
:1025400000D31546944200D81446012FE8D16045C7
:10255000CDD10FE00298C078022805D10298007909
:10256000292801D1B61CB6B2761D0598B6B28642AE
:1025700000D301270598811B042902D3864200D28B
:1025800094E604980028FBD1A54203D906987FB0B1
:102590000CB0F0BD224629468A9803F091FD0690C2
:1025A000F5E70000FFFF0000CC0300200229000037
:1025B00070B515460C46064609F021FF20346179B6
:1025C000012D09D00A0702D54207920F0FD0CA0683
:1025D00025D5020709D522E0CA0702D04207920F8B
:1025E00005D08A0705D5020703D4082070BD052051
:1025F00070BD490707D5C00709D0E179304609F019
:1026000086FE5F2805D02079C00704D005E00F20A2
:1026100070BD0C2070BD022070BD002070BD890609
:1026200007D5C007F3D0E179304609F070FE5F2886
:10263000EFD02079810701D4022D07D0410701D4C2
:10264000042D03D00007E8D4082DE6D1032070BD87
:1026500000B500F0C5FE002805D085220169920171
:10266000114200D0002000BD10B508480649416164
:1026700007490723CA691202120A44042243CA61A5
:1026800000218161036110BDFE7C000000E000E0DC
:1026900004ED00E010B507F02FFC06F041FC0EF051
:1026A00045FA012801D100F004F800F0BFF810BD90
:1026B0007047704700207047002101E000BF491CAF
:1026C0008142FBD370470000F3B58BB005461C2256
:1026D00048A103A8FDF764FD684603F0E5FA092464
:1026E0000126E406002D67D04420694688764848D4
:1026F000017A314301724C206946C8752020087563
:10270000B22048775B2008A90870424A906A424983
:10271000030C8B420AD108AFFB788F273B4008AFF0
:10272000FB70FB784007400E0343FB70506A020CBD
:102730008A420AD16B465A7CCF231A406B465A74A0
:102740005A7C8007800E02435A7432484038006B2E
:10275000020C8A4209D108AAD17889088900D1706F
:10276000D1788007800F0143D1706946C87DFB2175
:1027700008406946C87548788978000108431228DE
:1027800008D308A9C8780421084308A9C870C878E4
:10279000FEF7F8FE03A8012180B209044018E060AA
:1027A000E068C003FCD46946487889780001084392
:1027B000122801D30AF07EFC1849088B0028FCD0AF
:1027C0000E8317208881002008610C98002806D00D
:1027D000216910200140226902408A42FBD0002D6D
:1027E00002D00F49152008700F490E4808600DB03F
:1027F000F0BD0000023F00023E30023C20023B4C94
:10280000023A400239B202345B02350B000000008C
:1028100000002040C007001055AA0000000010482A
:102820000000C040CCBCECFC14000020F8B5104EF9
:1028300030682030C57D002D19D0002405277F0287
:1028400010E0E9070BD0C01941695820604308180F
:102850004030417D204604F09DFD002807D06D08E2
:10286000641CE4B23068AC21095CA142E9D8F8BD2F
:10287000CC030020F3B581B0934A012101A806F0F2
:10288000FBF9924C04222060432101A806F0F4F9E0
:1028900011272168FF01C91908670422432101A8F3
:1028A00006F0EAF921680422C9194867FF2184313A
:1028B00001A806F0E1F92168854DC9198867A97F4B
:1028C0000C2201A80B3106F0D7F905262168760203
:1028D00089198863A97F202201A806F0CDF9216813
:1028E000102289198862A97F01A806F0C5F921681C
:1028F00028228919C862052101A806F0BDF92168BE
:10290000302289194863052101A806F0B5F921682C
:10291000FF22891908630132012101A806F0ACF9F0
:102920002168582289190864A97F01A806F0A4F932
:102930002168202289194861A97F01A806F09CF925
:102940002168782289198861A97F01A806F094F985
:102950000F212268C9015118C8630722032101A869
:1029600006F08AF90F212268C9015118086428224B
:10297000012101A806F080F90F212268C901511830
:102980008864AA8B012101A806F076F90721226844
:1029900009025118C866298B282201A806F06CF993
:1029A00007212268090251184866698B302201A864
:1029B00006F062F9072122680902511888660C2284
:1029C000012101A806F058F921680C228919086133
:1029D000012101A806F050F9216828228919096906
:1029E0008860284620300090417801A806F044F91C
:1029F00021680422891909698968886000984178EA
:102A000001A8491C06F038F92168102289190969C2
:102A100089684860A97F01A806F02EF92168022282
:102A2000C9194866A97F01A806F026F92168022283
:102A3000C919C863A97F01A806F01EF921680222FE
:102A4000C9190864A97F01A806F016F921680222B5
:102A5000C9194864A97F01A806F00EF9216801226E
:102A6000C9198864A97F01A8491C06F005F92168E5
:102A70001022C91908660B2101A806F0FDF80721EC
:102A800022680902511848600422802101A806F03A
:102A9000F3F821688919C861029ADC2042430121B8
:102AA00001A8443206F0E8F8216889190862029A00
:102AB000D8204243012101A82C3206F0DDF821681C
:102AC000891948620198FEBD580A0000CC03002015
:102AD00028090020704710B5C001000C00F028FB49
:102AE000002010BDFEB572B63F4D08232868014690
:102AF0004030C2791A43C27162B6002011276C4679
:102B0000FF0182005218D219D26F52884300401C34
:102B1000C0B2E2520328F4D372B6C8190021866EFF
:102B2000816662B6F00702D000200EF073FCB00799
:102B300002D501200EF06EFC700702D502200EF0C7
:102B400069FC300702D503200EF064FC002623E068
:102B50000D281AD2211D254A800012582046904780
:102B6000002812D072B62868F7224030C17911408F
:102B7000C17162B630E03A2807D21C49231D80009B
:102B8000E8390A58194620469047029829684018A3
:102B9000C019C06F2188018071006846415AB00099
:102BA00002902A688018C019C06F028892089200AB
:102BB0001418028808348A420ED0A27891070BD0EC
:102BC0009107890F012901D104460834A0788008B3
:102BD000C006E078CFD5BBE7761CF6B2032EDBD378
:102BE0000EF01EFBFEBD0000CC030020307E051061
:102BF00070B50EF02FFB124C11252068ED01401925
:102C0000006F40210EF004F821684919C867486F29
:102C100040210DF0FDFF0926216836028A19106057
:102C20004819FF21806F81310DF0F2FF23680822DF
:102C30009919486003480021181806F098F870BDEB
:102C4000CC030020E8080000FEB506462A481446DA
:102C50000068E322D2008518C888032806D02346DE
:102C6000002202210420FEF79FF843E08968022237
:102C700068460D3106F077F8326990052FD4684622
:102C80000188172903D35C20405B172801D2172045
:102C900002E0814200D208467080012040020243D7
:102CA00002203261019014481B21006889014118FB
:102CB0003788C97E76880123490710D51121C901BB
:102CC000083040182422C06F02210BF08FFC00282E
:102CD00005D08780C680014601980BF073FCA06880
:102CE00003260673A068294602225C310D3006F0E7
:102CF0003AF8E6800020FEBDCC030020F7B590B086
:102D000000206A460D9090826A4AE3231268DB0035
:102D1000D218CB880446022B08D0002218210420A8
:102D2000129BFEF741F8002013B0F0BD8B68002025
:102D30005E7B0A900B9088883032019209900027C0
:102D400001980CF01CF9054620E028680890A98835
:102D50000998814219D1A968022207A80D3106F00D
:102D600002F8002F01D16846878B6846808B874226
:102D70000BD1294601980CF04FF9002028600A98E1
:102D8000002811D00B9805600B95089D002DDCD113
:102D9000002FD4D112981921806801730121129853
:102DA000012EC18002D081E00A95EDE702A90AA8B0
:102DB000FEF73CF8002879D069460A891821129B51
:102DC000FDF7F2FF002671E081680546022202A8A5
:102DD0000D3105F0C8FF012E66D16846008901F06B
:102DE00095FE014668460EAA008902F015FE0E9C6B
:102DF0001099204600F0D6F90D9055E02F68012E6D
:102E00003FD1002F06D0B968022205A80D3105F088
:102E1000AAFF02E0002069468882A968022204A86D
:102E20000F3105F0A0FFE8880D99401F80B2009097
:102E3000208CA269484369461018098A009A4318F1
:102E40000921284606F06EF92220005D012804D1F0
:102E50006846018A00980818E08368460189808ADC
:102E600081420ED0208C0D99A26948431018002190
:102E7000019000911098E38B0188A28B02200BF047
:102E800095FD0A9908680A90002008600A990029AF
:102E900000D10B900121284606F0E0F96946088927
:102EA000898A884202D13D46002DA7D10A98002880
:102EB0008AD139E7CC030020F0B585B0002000901E
:102EC00001904F484D4901604E4941604E4911F013
:102ED0009EF84D4D0921083D2889FDF74BF92881C1
:102EE00001464AA00AF004FF0024AE1D0DE046484A
:102EF00002223E21801E09F087FE414831782430AD
:102F00000155001971784170A41C28891221401EB6
:102F10004843A042EBDC684605F0DCFA01A804F067
:102F2000EBFF002728893E46401E039062E03448AC
:102F30002430C4196078217800020843FDF7C2F9F3
:102F400000990291FDF776F9FDF7C3F93546142192
:102F50004D4335494853E078A17800020843FDF716
:102F6000B1F90299FDF766F9FDF7B3F92E496D182D
:102F700068806079217900020843FDF7A3F902997E
:102F8000FDF758F9FDF7A5F9A880E079A1790002CD
:102F90000843FDF797F901990291FDF74BF9FDF709
:102FA00098F9E880607A217A00020843FDF78AF9EF
:102FB0000299FDF73FF9FDF78CF92881E07AA17AB3
:102FC00000020843FDF77EF90299FDF733F9FDF79A
:102FD00080F96881207B617B000209040843E17B62
:102FE000761C0843E860607C217C0002084328824C
:102FF0000398123786429ADB05B0F0BD0F4B0510DF
:1030000074040020014B051058030020546865200B
:103010006E756D626572206F6620736574732069CA
:1030200073202575200A0000B406002030B52B4C13
:1030300089B02BA0E1680AF05BFEE16814202B4DFB
:1030400041434819428853426A4613741B12537411
:10305000695A91740912D174818849421175091213
:103060005175018991750B12D375C58815762D128E
:1030700055769176D376C16811770B0A53770B0C8E
:103080009377090ED177008A08AA1070000A507051
:10309000122004A900250090029001950391144884
:1030A0000123A288218800880BF08AFE010007D046
:1030B000642910D00FA00AF01BFE472009B030BDD4
:1030C000E0681949401CE0600988491E884202D125
:1030D0001648E56005700020F0E70000400300207E
:1030E00054657374202575200A000000B406002082
:1030F000540300204572726F72207768696C6520F6
:103100007570646174696E672061636320636861D0
:1031100072616374657269737469633A20307825EB
:103120003032580A000000005803002072030020CB
:1031300000B508490968084A914209D14006010CC6
:1031400006483F22028181611121018000F022F8AE
:1031500000BD000014000020CCBCECFC00001040BE
:1031600000B5094A1268094B9A420BD1084A3F231D
:103170001381800890610648403001603320108040
:1031800000F008F800BD000014000020CCBCECFCEE
:10319000000010400248018AC907FCD070470000B7
:1031A0000000104030B5024623239B5C0020012B19
:1031B0001AD112890D4B9A4216D10D4A0523126875
:1031C0005B02D318A0329B69127B0AE045010C8890
:1031D0005D5B24052D05240D2D0DAC4204D0401C53
:1031E000C0B28242F2D8002030BD000002290000A7
:1031F000CC030020F7B578480F460068E321C900EA
:103200004418F88888B0072804D200220621042038
:103210000A9B2AE0B968022268460D3105F0A3FD39
:10322000B968022201A80F3105F09DFDB96802229C
:1032300004A8113105F097FDF888C01F80B20390F3
:1032400068460288808882420CD8002A0AD00898F2
:10325000002142880A9807F0EEF8002808D045209F
:103260000BB0F0BD062101200A9BFDF79DFDABE0F0
:103270000A9807218068083401730121684601819A
:103280000594008801F042FC05007CD086E0684689
:10329000008A0522D202904202D0521C904226D1CE
:1032A00068460088814278D329460B220831384687
:1032B000039B05F0CDFF69466A8D098A8A426CD16D
:1032C0000399022901D0102967D1002865D12A4627
:1032D0002846296A28322030814202D06B6A1C338A
:1032E00000E0134602A90A98FDF786FD55E02E4638
:1032F0002C6A2036B4424ED14FE06946A08B098833
:10330000884247D369468988884257D82320005D80
:1033100001283FD120460899FFF744FF218CA2697C
:10332000414351180B223846039B05F091FF06904C
:1033300008980122008821460005000DFEF722F8BA
:1033400001466A462089128A904223D1002921D160
:10335000E28B03998A421DD1069900291AD1089956
:103360006A4649881289891A042927D322461B49AB
:103370001C32884208D12068B04205D000898842BA
:1033800002D02468F7E719E023461C3302A90A9803
:10339000FDF732FD2468B442AFD12D68059885420F
:1033A0000CD06846298D8088814207D808986A46E3
:1033B00040881289801A042800D368E7684600898B
:1033C000012803D90A99C880002049E76846028885
:1033D00006210A200A9B48E7CC03002003280000AE
:1033E00010B50D4900050B680521490259188A6975
:1033F0000021000DA0331B7B0AE04C01145B240567
:10340000240D844202D14801801810BD491CC9B264
:103410008B42F2D8002010BDCC030020FFB589B04C
:10342000002405460794D0881646052804D00022BB
:10343000042108460C9B20E0B168022208A80D3147
:1034400005F091FCB168022268460F3105F08BFC53
:103450006846028C008882420CD8002A0AD00A985A
:10346000002142880C9806F0E6FF002808D045208D
:103470000DB0F0BD042101200C9BFDF795FCB9E0D7
:103480006846008C01F042FB060076D008350495B2
:103490000498864272D06946308D098C884230D3B8
:1034A0006946098888422CD8002C0AD1012107914D
:1034B0000C9805218068022401730C980799806894
:1034C00041730A984088001B042857D307980128A5
:1034D00054D1201D81B23346283302220C9805F0C6
:1034E00011FFA01D81B233462A330222A41C0C987E
:1034F00005F008FF6946A41C308D0988A4B28842F3
:1035000074D03746356A2037BD42C1D060E0694685
:10351000A88B098C88425AD369460988884265D8A5
:10352000002C36D02320415D0798814260D10A9853
:103530004088001B042802D30799012904D01228CF
:1035400056D30798022853D1201D81B22B461C3335
:1035500002220C9805F0D6FEA41C0798A4B20128FC
:103560000DD0201D81B22B46083310220C9805F097
:10357000C9FE2046103084B229E03DE036E0201D2F
:1035800081B22B46083302220C9805F0BBFEA01C2A
:10359000F1E72320415D07910C9805218068022204
:1035A00001730C980799806841730C9829468068CC
:1035B0001C310E3005F0D7FB079901290CD02B46A2
:1035C0000833102208210C9805F09CFE14242D6865
:1035D000BD429CD136685BE70C9829468068022280
:1035E0000831103005F0BFFB0624F0E7002C03D0B3
:1035F0000C98C48000203BE76846028C04210A2016
:103600000C9B3AE7830810B50A48002102680520A0
:1036100040021018A0328069127B07E04C01045B65
:10362000002C01D0994204D0491CC9B28A42F5D875
:10363000002010BDCC03002070B50C460B4E81005D
:103640000B4832680D1801232032D37721462846D3
:10365000FFF786FD28680021844201D1084600E07A
:10366000FB2032682032D17770BD0000CC030020EF
:103670000000041038B5184A14682246BA32AE3435
:10368000A378DD0701D001290AD05B070CD50129F9
:103690000AD0217949070BD5E17A002905D007E046
:1036A000E07880210843E07038BD0121E17250804C
:1036B00020794106090FF7D0782108406946087043
:1036C000002048706A46022142200BF0BDF82079A4
:1036D00087210840207138BDCC03002038B5104840
:1036E000002104680846AE3403F04AFB694648707E
:1036F0002079C10704D001216A46117088432071E6
:10370000C0B2810705D502216A461170FD2108402B
:10371000207102216A4608460BF096F838BD000079
:10372000CC03002010B5FFF7D9FF10BDFFB50C4644
:1037300078A103C995B001910090002108A80173F8
:103740000321C90268464186012108A8734E01740D
:1037500035681746AE3502F01FFC002808D17049C5
:103760003068401802F012FAA878002802D04620EB
:1037700019B0F0BD0BA8159900F0EDFA0028F7D1AB
:10378000072010A90871012C05D0022C0AD0002CAA
:103790000ED04220ECE708A8017B1020014308A8C6
:1037A000017305E011A90BA800F022FB0028DFD16E
:1037B00010A8027901230CA9284600F0B5FF0028C3
:1037C0007ED102222946189805F0CDFA298868464C
:1037D00081811521490201820784012686734E21C9
:1037E00008A881700024C470067107214171867198
:1037F00003A902A800F052FD002861D1022202A90B
:103800001E9805F0B0FA082F02D26846478502E0FC
:1038100008206946488569460C850B4628880AAA0F
:10382000098901F0E1FE00286DD13E496846018218
:103830000227078408A8847103A902A800F02EFDBE
:10384000002860D1022202A91F9805F08CFA684670
:103850000470694644704F850B4628880AAA098976
:1038600001F0C2FE00284ED108A8007BC00723D07B
:103870002C496846C91C01820821018408A8877068
:10388000047103A902A800F009FD00283BD1FF2123
:103890006846C1718171C17081704170017044715D
:1038A00004716946082048850B4628880AAA0989B8
:1038B00001F09AFE002826D108A8007B800600E0CF
:1038C00021E022D52988684681811649A5310182E7
:1038D0000684867308A88770C4700471072141713B
:1038E000847103A902A800F0D9FC00280BD1694615
:1038F0000E700C854E850B4628880AAA098901F0AE
:1039000073FE002801D0472032E708A8007BA8708A
:1039100000202DE7626C75656E726721CC03002074
:10392000DE060000012A0000034800210068AE30D6
:10393000C170817070470000CC03002070B50D4B42
:103940001C68AE342379DD0612D45B0710D533280A
:103950000ED1E07A02280BD10420107000205070A4
:10396000C9B202200AF070FF2079FB2108402071C3
:1039700070BD0000CC03002038B502461748012472
:103980000068AE30022A1FD0052A03D0072A07D0CC
:103990000B2A20D1084609794088FFF76BFE1AE010
:1039A00000790024020600D50124820703D1C20653
:1039B00001D480060FD5084600216A461170694679
:1039C0000AF064F9044606E08178490703D50179D5
:1039D000FB2211400171204638BD0000CC030020BD
:1039E00010B509480468AE34E07880070BD5002094
:1039F00003F098F802200AF09FFEE07801210843C6
:103A0000FD210840E07010BDCC03002010B5FFF789
:103A1000E7FF10BD0FB410B5079C01282DD16846F3
:103A200080891749884210D103A80FC800F006FA10
:103A300000281DD107F00EFFFA281ED001281CD93E
:103A40002078F3210840207017E00D49491C884276
:103A500008D0C91E884205D0491C884202D0C91C22
:103A600088420AD103AC0FCC00F0E8F9002800D05E
:103A7000632010BC08BC04B018470020F9E7000020
:103A8000022A0000FFB5074671480D4604688FB052
:103A9000AE34A1781E46C80602D5E078C0067DD4B3
:103AA000880607D5E0788006800F03D0022F01D06A
:103AB000002E73D08806800F06D0022F08D0032F67
:103AC00006D0002E6AD003E0012F01D0002FF8D1DC
:103AD000880603D4002D01D0012D5FD1002E06D120
:103AE00030200140384602F001FF002856D11199DC
:103AF00000200870A0788006800F7DD00CA908A84F
:103B000003F0DCFA07900DA90AA803F003FB069066
:103B10000798002802D00698002801D1012E58D11C
:103B2000022F04A807D001F09DFF002E3CD007987B
:103B3000002803D012E008F03BFCF6E7444F45486C
:103B40003B68062208A9181805F009F9002838680A
:103B500008D04030417E4908490041760698002847
:103B600005D014E04030417E01221143F5E7384F83
:103B700038483B6806220AA9181805F0F0F8002812
:103B800038680CD04030417EFD22114041760798C4
:103B9000002809D00698002806D01AE043E04030FB
:103BA000417E02221143F1E7294806220368294891
:103BB00004A9181805F0D7F8052069460873002EE7
:103BC00002D1084609F0C8FC23480290684609F073
:103BD00075FCA078800611D5119803210170207919
:103BE000C10603D5002D01D0022D1CD1800605D5BC
:103BF000012D03D0032D00E018E014D1A078C006F9
:103C000023D51199012008702079C10601D5002D16
:103C100009D1810601D5012D05D1000615D5002D4C
:103C200013D0012D11D0422013B0F0BD012F0CD1C3
:103C3000002E0AD10648062203680648611D18189E
:103C400005F091F81199012008700020ECE70000C0
:103C5000CC030020DE060000A0BB0D003EB50DF039
:103C600003F804460DF08EF8082C01D1082813D073
:103C70000A480B49006806224118684605F073F8A7
:103C800068464079400601D5022000E00320012368
:103C900002AA0021FFF7F6FE3EBD0000CC03002083
:103CA000DE0600001FB50E480468AE34E078010659
:103CB00012D5A178C9070CD0800708D50420694621
:103CC0000873684609F048FC02200AF035FD002020
:103CD000E0704006400EE07000F064F81FBD000088
:103CE000CC030020F0B58DB00C4616A9E0C9002128
:103CF000089109910A910B911599049105A9E0C1C8
:103D000012A962C9009301911346014603960295D8
:103D1000224601200AF07CF80DB0F0BD0949B2221C
:103D200009681423525CBA311A4208D04988000548
:103D30000905090D000D814201D1012070470020C5
:103D400070470000CC03002002780907090F0A43DE
:103D500002700020704710B5FFF7F6FF10BD00009D
:103D600030B50E4885B005682C46AE352879BA3492
:103D7000400711D5E87A01280ED11521490268467D
:103D800041800121017060886B46054A00F0E6FF22
:103D9000002801D10220E87205B030BDCC0300201C
:103DA000FFFF000010B5FFF7DBFF10BD7CB5044638
:103DB000E1200D46800003F0B3FA0BA103C9009087
:103DC000019168460DF0D2FC012003F037FB00287A
:103DD00001D047207CBD2078202108432070092095
:103DE000287000207CBD00001F02000000000000C1
:103DF00010B5FFF7DBFF10BD10B50446022000F040
:103E000051F80D4800210268052040021018A03228
:103E10008369107B05E04A019A5A002A04D0491CA4
:103E2000C9B28842F7D810BD48011C52C0180269B7
:103E300004210A43026110BDCC0300201FB582B0EB
:103E4000002401F079FE694601F0F6FD009A68460B
:103E5000116A0089203209E023235B5C012B04D125
:103E60000B89834201D1641CE4B209689142F3D109
:103E7000204606B010BD000010B5044601460420DF
:103E800002F0C4FB002809D00548E3210068C900FE
:103E9000401821463C300BF0A2F8432010BD000032
:103EA000CC03002004490A683B21490151180A78D3
:103EB00002430A7070470000CC03002000B511389F
:103EC000C0B2FFF79FFB002804D001220169520510
:103ED0001143016100BD70B5012186B0084609F0AB
:103EE00083F901252D03002468460095047184712F
:103EF000447100F0ADF86846047503214175012650
:103F0000867505A804F0C4FE02A8049602950394E1
:103F100000F019F8284600F006F80121284600F0C4
:103F200008F806B070BD012189078A6A02438A62D7
:103F30007047012292070029D16901D0014300E0B6
:103F40008143D16170470CC8012189070838012BD2
:103F50000B690BD093430B618268012A08D0002AB9
:103F60000AD04A69006802434A6170471343F2E786
:103F70008A6903681A4302E08A6903689A438A617E
:103F80004A6900688243EFE701218907496A0142D3
:103F900001D00120704700207047000038B508F0BC
:103FA0003FFD164C800000198038C06FFFF7ECFF12
:103FB000012815D108F034FD800000198038C06F49
:103FC000FFF7B1FF0E480068816868468847684679
:103FD0000078012804D10B4908700BA009F088FE75
:103FE000012464032046FFF7CFFF012805D12046B6
:103FF000FFF799FF0AA009F07BFE38BD787C051019
:104000006C03002070030020465245452046414C79
:104010004C204445544543544544200A00000000C8
:1040200041204750494F20313320494E5445525288
:1040300055505420484153204F4343555245442046
:1040400046524F4D20425554544F4E5F310A0000A6
:10405000F0B502790124A4070168002A02D0062ADB
:1040600003D006E063688B4302E0636800220B43E1
:10407000636000210F270368CB40DB07DB0F19D0FB
:10408000082909D2E56A8B003E469E40B543164694
:104090009E403543E5620DE00B46083B082B09D2F4
:1040A0008B003D46203B266B9D40AE4315469D4010
:1040B0002E432663491CC9B21A29DCD34179012950
:1040C000E168026809D09143E16081790129A16822
:1040D000006804D08143A160F0BD1143F4E70143BF
:1040E000F9E7000001490860704700004000004007
:1040F00001218907C8637047002101600171817146
:1041000041717047012189070A6842400A6070477F
:10411000012902D003490860704701218907C8635B
:10412000704700004000004003480068AE308078CF
:104130008006800F70470000CC030020F3B597B0D5
:104140000D8848880590081D1DC80DAE1DC68C8AB7
:10415000CE8A087E1390C8692031019008780090BB
:104160004878049088780390C87802900F7900F01E
:10417000B9FE002817D10120400284425FD8B44222
:104180005DD8002F01D1B44259D114A9284601F0BD
:1041900053FC002806D115AA1499059801F03CFC9F
:1041A000002802D0602019B0F0BD149D11A9284646
:1041B000183004F0F3FA10A88088002810D02846A0
:1041C00012A9203004F0EAFA10A8838800892A8D09
:1041D0001818696A10188A8B904203D16120E2E7AF
:1041E0004820E0E715982C4B02899A4227D12322D8
:1041F000125C012A23D100680068169013980128E8
:104200001FD16846808E29221202801A030009F00D
:104210008CFD0604180404070A18022C0FD110E0C4
:10422000072C0CD10DE0042C09D3E00707D1012F96
:1042300007D1A64203D3042E01D3F00701D04220B8
:10424000B1E702980B90039B049A0A930992009895
:10425000019A0C9708900696059407920DA81DC820
:10426000019002A81CC013980B4600902A4616998C
:10427000179800F0AFF9002895D168460649808E5E
:10428000FF31884205D01798018800200A4601F0C6
:1042900017FF002087E7000003280000F3B5A5B052
:1042A00008881A9088780C4611901022091D13A8CE
:1042B000FBF776FFA08A1090A17D68460172E07D31
:1042C0000F90207E2090677EA07E1F9000200646E3
:1042D0000146129020A801810F20BB4C2390E321BE
:1042E0002068C9004018199000F0FCFD00280BD18F
:1042F00001211098490288425FD821A91A9801F03B
:104300009BFB002802D0602027B0F0BD21981790B9
:1043100001F012FC1A9988420CD102A8019016985B
:10432000009013AD0ECD1198FFF774FB002801D05B
:104330006320E9E76846017A8806800F05D00120EE
:1043400012902068A030007B4600C80703D0129866
:10435000401CB61C1290080603D51298401CB61CCF
:10436000129017980DA918301D9004F017FA68469E
:10437000129C808EA41CA04237D317980EA920301F
:10438000019004F00BFA6846018F00290DD01798B0
:10439000179A6B46406A9B8E128D5918808B511864
:1043A000081AA04201D26120AEE7179884691198DB
:1043B0002568012803D0022803D04220A4E7052065
:1043C00000E01320E0832A4639460F98FDF73FFFAF
:1043D000422899D0199FE28B4037788B398B411A4C
:1043E000109810188019814201DA48208CE70EA934
:1043F000019804F0D3F96846008F0028179802D07E
:10440000406A808B00E0008D2599401C088025982B
:1044100001210088A083259802220088401CA883DF
:104420006A482081204620301790C1700021817099
:1044300081711998398B406D40186946A061097ADD
:104440000170A06929461C31401C04F08CFC1198B5
:104450000128A0697ED0102213A9C01C04F083FC9F
:104460002846102213A9083004F07DFC388B133045
:1044700038832E4620361198F0701098E8831F98E4
:10448000B07010982084109828841998398B406D4A
:104490004018A8610021109A04F069FC398B10982B
:1044A000081838831799012008711799002048715E
:1044B00030716846007A810701D501213171010709
:1044C0000227002902DA317939433171410703D5D6
:1044D0003179042211433171400603D53079082126
:1044E000084330710F9870712098B07121461D9863
:1044F00004F07DF92146019804F05AF929461D98E7
:1045000004F075F92946019804F052F91298002830
:1045100041D068461A998181A18BC1810784478463
:10452000012408A8047122A80A9008A8847323997A
:1045300041730F993820014008A801730721C17306
:10454000002505746846007AC00708D020486946EF
:10455000088200E02AE003A924A8FFF7EFFD6846DF
:10456000007A8006800F07D019486946401E0882ED
:1045700003A924A8FFF7E2FD6846007A00060AD5E1
:10458000292109026846018208A84473057303A91A
:1045900024A8FFF7D3FD259801881298401C08181D
:1045A00082B2002001F08CFD0020ADE6022213A9AA
:1045B000C01C04F0D8FB2846022213A9083004F0DE
:1045C000D2FB388B401D53E7CC03002003280000AA
:1045D00003290000FFB55248E322006887B0D200EB
:1045E0008218069210AA109B0126169F9288012B12
:1045F00004D14C4B9A4201D1A030067B069D344633
:104600004035688B2B8B7C43C31A0998203003906C
:10461000A34222DA48200BB0F0BD2320405C0128E1
:1046200019D108896C46208098420CD03D4C641EFC
:10463000A04208D0641CA04205D0641CA04202D055
:10464000A41CA04207D1374CFF3CA04201D09042AD
:1046500001D16220DFE7096801E029231B020398EA
:104660008142DAD109981B99846918982246FDF78E
:10467000EEFD4228CFD01C98012804D1159887421E
:1046800001D24220C7E71598E083204620301C99CC
:104690000590817027840A98808B401CA083109815
:1046A000012814D02046102211A9083004F05BFB29
:1046B00005991098C8700698298B406D4018A06124
:1046C000298B384670430818288300250FE011A86D
:1046D0000FC808340FC4183CEAE72846A16978439C
:1046E0000818159A179904F03EFB6D1CEDB2B542FF
:1046F000F3D3059918984871059919980871059987
:104700001A98887109982146183004F070F82146EB
:10471000039804F04DF80798A18B018000207AE7F8
:10472000CC03002002290000FFB58FB014460E789C
:10473000102205A8891CFBF733FD5048E3210068CF
:10474000C900451800F0CEFB00281ED1002C57D020
:10475000012E09D16846808A4949884204D12846F9
:10476000A968083081424BD128461030296903904E
:10477000814209D00AA9284604F010F86846018D44
:10478000601E0D90814202D2482013B0F0BD284631
:1047900008300CA9049004F001F86846008E002847
:1047A00014D0EF680AA93846183003F0F7FF3846EE
:1047B00020300CA903F0F2FF6846398D008D0918EE
:1047C0006846008E401C081887B200E001270120CF
:1047D0000004C01BA04201D26120D6E72C692868E2
:1047E00001901298012802D0022803D008E0052089
:1047F000C00200E023486085012E03D0022E05D0C0
:104800004220C2E720460830022202E0204608305B
:10481000102205A904F0A7FA2046314620300646AA
:1048200001730F98214607802785039803F0DFFF67
:104830002146049803F0BCFF27461837E7616662FB
:10484000A76126620D9884B20BE02846019903F017
:10485000CEFF3846019903F0ABFF2868641EA4B26E
:104860000190002CF1D10F9801880D98081882B2A0
:10487000002001F025FC002087E70000CC03002089
:104880000118000001280000F7B5064639480F4618
:104890000068E321C900441882B03046FEF7A0FD4D
:1048A000050064D02046243000900AF0AEFB0028BA
:1048B0005DD1286900035AD500980AF060FB0446D0
:1048C00053E0A088B0424FD120223146002004F0AE
:1048D00069FC06001CD0A068002F017B427B19D028
:1048E00033460498FCF760FA002001212A69C904C4
:1048F0008A432A6100282ED0692806D03046FFF767
:10490000BBFA2969102001432961002005B0F0BDE0
:104910006420FBE70A2906D00C290AD00E290ED004
:10492000082912D023E032462146284606F022FD0F
:10493000DBE732462146284606F027F9D5E732461E
:104940002146284606F01CFCCFE732462146284681
:1049500006F0AEFAC9E7214600980AF05DFB012196
:10496000204604F07BFCC9E72468002CA9D1412033
:10497000CCE70000CC030020FEB58C68CD88267BF8
:10498000012E01D00020FEBD4126052D01D01E7054
:1049900019E0247C0A2C00D01E70002A0DD08968F2
:1049A000052268460C3104F0DEF96D1E00AAA9B29A
:1049B00032200132FEF7C2FF05E000880A460146B8
:1049C00002200AF075F84120FEBD000070B50646D1
:1049D0004625FDF73DFE04001CD0208A800519D431
:1049E00020223146002004F0DDFB060011D00146F4
:1049F00000252046FCF7ECF9A12120698901084334
:104A000020610548A0610320A0733046FFF734FA07
:104A100000E06425284670BD1D4A0410FEB504461A
:104A20002E48E3210068C900E26946189068002515
:104A30000146007BD3880831012835D0032B01D0F3
:104A4000412538E002226846491D04F08CF92169AD
:104A500088050BD440366846B28B0088824200D26B
:104A60001046608001204002014321610220019034
:104A70001A481B21006889014118C97E2788668869
:104A80000123490717D51121C901083040182422F4
:104A9000C06F022109F0AAFD01000CD08F80CE80EA
:104AA000019809F08FFD06E04125052B03D12188EF
:104AB000022009F0FDFF0121E06904F0CFFB002096
:104AC000E0610120216940038143216121882A4658
:104AD00002200AF0C7F80020FEBD0000CC03002031
:104AE00002460948E3210068C90041188868083176
:104AF00003E0038D934202D200688842F9D18842D4
:104B000000D1002070470000CC030020034610B500
:104B10000F48E3210068C90041188868083103E0A4
:104B2000148D9C4203D8104602688A42F8D18A420A
:104B30000CD1018D994209D20146026A20318A4284
:104B400003D0416A898B994200D2002010BD000039
:104B5000CC030020024610B50B4812050168052061
:104B60004002081883690020120DA031097B07E07C
:104B700044011C5B2405240D944203D0401CC0B2A8
:104B80008142F5D810BD0000CC030020F7B50546E2
:104B9000174601980AF0F3F92E050446360D0CE08D
:104BA000A0882568B04207D1214601980AF034FA5E
:104BB0003946204604F052FB2C46002CF0D1FEBDB5
:104BC000F0B58BB0002064490290E3200A68C00071
:104BD000141872B610464030C57902231D43C571C2
:104BE00062B625464035287AC0077DD005204002B0
:104BF0001018002687694AE071017A5A002A44D0C9
:104C0000C919069109694A021FD48A0227D50221CF
:104C100004910699012309880905090D03911B21B7
:104C200089014118C97E89070FD51121C9010830B2
:104C300040182322C06F022109F0D8FC010004D0E3
:104C4000039A8A80049809F0BDFC069800880090B9
:104C5000069800F0C9F8009807F0E6F815E0480754
:104C600013D5069800880005000D07F0B9F8002854
:104C700005D1069800880005000DFDF7F5FA0699A4
:104C800004200969814306980161761CF6B2324816
:104C9000AC210068095CB142AED805F08DFD20461C
:104CA000243006460AF0B1F9012802D0012005F0AF
:104CB00085FC204618300AF0A8F9012802D000200F
:104CC00005F07CFC3C3420460AF09FF901280FD007
:104CD00002A920460AF0C2F90420029901F096FCCC
:104CE0000028F0D0204600E034E002990AF064F990
:104CF000287A00062ED530460AF087F9012829D1F6
:104D0000002004F02BFAA98B23314909491CC9B2B0
:104D1000FBF730FA00281DD00F4D044628681121FA
:104D2000C90108304018422601233822C06F31469D
:104D300009F05CFC01000DD000228A80CC80304656
:104D400009F040FC3B212A68490151180A7880206B
:104D500082430A700BB0F0BDCC030020FFB589B0D0
:104D6000074646251E781022991C05A8FBF718FA5D
:104D7000012E04D0022E02D042200DB0F0BD3846E4
:104D8000FDF766FC040024D020223946002004F000
:104D900009FA07001CD005AD04960FCD6D460FC56E
:104DA000394620460B9B0A9AFCF738FB050004D0D5
:104DB0000021384604F052FA0BE001212069490332
:104DC000084320610448A0613846FFF755F800E029
:104DD00064252846D1E70000DD4D041010B55021B0
:104DE00000F03EFB10BD0000F0B504463C48E32156
:104DF0000068C9004518218A85B089041AD50221A6
:104E000004911B2189014118497F412627880123EC
:104E1000C9070FD01121C901083040183122C06FD5
:104E2000022109F0E3FB010004D08F808E71049809
:104E300009F0C8FB2946208801221831FFF7A6FE99
:104E40002946208801223031FFF7A0FE294620881C
:104E500001222431FFF79AFE2946208800223C31A6
:104E6000FFF794FE20880005000DFFF773FE850014
:104E7000294611316846017308F06EFB294612314C
:104E80006846017308F068FB2946133168460173D0
:104E900008F062FB68461435057308F05DFB208856
:104EA00000F028FA208801050D48090D0268052048
:104EB00040021018828F914201D100218187E06960
:104EC000002802D0012104F0C9F920220021204647
:104ED000A56803F04CFF1720A560608005B0F0BD09
:104EE000CC03002010B50B48E3210068C90044182A
:104EF0004034207AC00709D0002004F02FF9217A2D
:104F0000890701D5002803D0002010BD472010BD1F
:104F1000642010BDCC030020F0B55FA099B00068FC
:104F20005E491590E3220868D200841805225202D7
:104F3000821892692546403514922A7AD20702D007
:104F4000622019B0F0BDAA8B01235B029A4201D9FD
:104F5000AB8303E0172A01D21722AA83149AA03048
:104F60001392067B0DE0761EF6B2139871010F18AE
:104F7000B8680F9038462022002103F0F8FE0F9801
:104F8000B860002EEFD120460830E0606460A06079
:104F900024600830139060612061FF2200210830F6
:104FA0000AF002F82046FF220021243009F0FCFF1D
:104FB0002046AA7F0021303009F0F6FF2046FF226C
:104FC00000213C3009F0F0FF00222A721046172120
:104FD000324B05E0149E4701BE19401C7180C0B2DF
:104FE0001E68A036367B8642F4D8002028832F8C9A
:104FF000688C0026149008E02820E16C70430918A2
:10500000204603F0D5FB761CB6B2BE42F4D3002690
:1050100008E03020216D70430918139803F0C8FB95
:10502000761CB6B214988642F3D30120FEF73AFFFD
:105030000124684604701A494180234604226946C7
:105040000CA8FFF771FB002822D16846018E8182EF
:1050500014490183042606858475202108A88172DD
:105060000024C472047307214173847305A90DA839
:10507000FFF714F900280BD1684604874687818E14
:1050800015AB0EAA008E00F0AFFA002800D158E749
:1050900000202872472054E70000FFFFCC030020C7
:1050A00001180000052A0000F8B504467D480E46A8
:1050B0000068E321C90047184820C05DC0077BD0C5
:1050C000B088FEF78DF90546012C02D0002C75D072
:1050D000E6E0002D0CD0286941074AD4B268F18877
:1050E000147B0029F4D062060CD56888884201D26E
:1050F0000121B2E0D22C01D0522CF9D138463146F0
:1051000018303FE0A106890E1E293ED81E2C21D161
:1051100001071FD50821884328612988012007F04D
:10512000FFFF0121304604F099F85E481121006824
:10513000C9010830401842242D8801233922C06F4C
:10514000214609F053FA010003D08D80204609F072
:1051500039FAA5E0E1070AD01D2C10D01B2C0ED087
:10516000410529D4012189020843EE6192E0C0067D
:1051700001D54520F8BD2988002007F0BFFF38463B
:105180003146243009F02BFF8AE0298820220020B4
:1051900004F008F805000FD00121304604F05EF855
:1051A0002B46002221460620FBF7FEFD2846FEF78F
:1051B00063FE75E000E001E04120F8BDB068047BCB
:1051C0001D2C3AD01B2C41D00021304604F046F86B
:1051D000032C46D0052C44D0072C42D0092C40D0BB
:1051E0000B2C3ED00D2C3CD00F2C3AD0112C38D0AB
:1051F000132C36D0172C34D0192C32D0012C30D0AF
:10520000022C35D0042C33D0062C31D0082C2FD0D2
:105210000A2C2DD00C2C2BD00E2C29D0102C27D0C2
:10522000122C25D0162C23D0182C21D0522C1FD074
:10523000D22C1DD01E2C2FD032E0002D03D0298877
:10524000012007F05BFF3146022001E031460120DA
:1052500007F084FD002823D00021304603F0FEFF34
:105260001EE029691020814329612988002015E06A
:105270002869402188432861010511D5FF210131AA
:10528000084328612988022007F038FF0121286996
:10529000C9028843286103E02988032007F040FF02
:1052A0000020F8BDCC03002010B5114AE32312689A
:1052B000DB00D2184032127AD20706D002280AD078
:1052C000052804D00B2810D101E0412010BD4888EA
:1052D000FEF792FD09E04888FEF782F8002804D026
:1052E00001220169920511430161002010BD0000F7
:1052F000CC030020F1B5FFB085B04720019000201D
:10530000694608805348E3210068C900471884981B
:10531000FEF766F80290002874D0B96808374FE0AD
:10532000684600880D4604AC20186B4602222831DE
:1053300012F020FB68460088294620186B4601229F
:105340002C3112F017FB2E462036307B694601289F
:10535000098804A809D040186B4610222946083154
:1053600012F008FB01902C6A27E040186B460222DD
:10537000F4E76946098804A8401821466B460222D2
:105380001C3112F0F7FA6946098804A84018214632
:105390006B460122233112F0EDFA2320005D6946AD
:1053A0000128098804A830D0401821466B461022F5
:1053B000083112F0DFFA01902468B442D9D129688B
:1053C000B942ADD1019800281CD1684600888107F8
:1053D0000AD0214A011D11406A4611800A1A04A907
:1053E00008180B2103F0C3FC0298008806F0F8FCB3
:1053F000002807D1849869460005000D04AA098891
:1054000006F04AFA7FB006B0F0BD401821466B4660
:105410000222083112F0AEFA019020890F49884229
:10542000CAD120460299FDF7BDFE4000A169039054
:105430006A460918128804A880186B46022212F0E6
:1054400099FA0190A169039802220818002103F03B
:105450008EFCB1E7CC030020FCFF00000229000015
:10546000F0B58BB00D4604460020694608710490E3
:10547000E669002E16D0A806800F03D02088FEF71C
:105480004DFC049001AB31462046049AFFF774FAB4
:10549000412865D0E80708D021883246022009F06B
:1054A00055F85DE041200BB0F0BD680705D52188B7
:1054B0003246022009F00EF852E0A80739D5F088EC
:1054C0006188814205D921883246022008F0C4FF54
:1054D00046E02069410604D5012189020843206184
:1054E00080E021882022002003F05CFE05001ED011
:1054F00021883246022008F0AFFFA068801C0EF021
:1055000032FD6188401E401886B2A0680EF02BFD67
:105510000246334629462046FBF75CFF2846FEF745
:10552000ABFCA0683146801C0CF0AAF954E0452081
:10553000B9E7E80614D5F088412702280ED9B168EA
:10554000801E4D7B80B2854201D9012016E0002DDE
:1055500004D02946FAF70EFE00290FD068460771DD
:1055600001202169400381432161049800282DD046
:1055700001AA01213120FEF7E1F92DE0029002207D
:10558000002703901EE0049800280DD0039805AB77
:10559000001D81B22A46304603F0C4FD05AA294603
:1055A0003320FEF7CBF907E003980096C2B22B46F2
:1055B0002188022009F038FA0398401980B27F1C34
:1055C000BFB2039002988742DDD3C9E768460279EB
:1055D0002188022009F046FB0121E06903F03EFE2C
:1055E0000020E06100205EE7F0B5074617480E4650
:1055F00000683B2149014018007885B01D461446DB
:10560000C00706D003A9384600F016FA00280AD1D0
:1056100002E0472005B0F0BD04AA3046039900F02F
:10562000FBF9002801D06020F4E704992288608803
:105630000968002A00D0088C32466E4631C6032322
:105640003946002000F004F8E4E70000CC03002015
:10565000FFB5002099B0239A0B9012900546149044
:10566000064615901C46DB480B460068E321C9003E
:10567000411803910021229F0891099151880691B8
:1056800011880A913B21490140180078C00706D0D3
:105690000FA9184600F0D0F900280AD102E04720EF
:1056A0001DB0F0BD10AA0F991B9800F0B5F90028A5
:1056B00001D06020F4E71998002803D0600701D5D5
:1056C000012000E000201390A007800F1C9010988C
:1056D00017902030C078012840D11798BE4B01891F
:1056E0009942F9D11798069904680A98228C4118B2
:1056F000914233D82046203016908078012816D069
:10570000E08B04901798806900788006800F7DD028
:10571000039840301890007A800777D51C980028AD
:10572000F5D0AD4F0F99FF372031206814E0BA4211
:1057300014D3B942DDD80497E4E70389A64A93421B
:1057400003D12322125C012A08D0BB4203D12322B9
:10575000125C012A03D000688842EED134E1059042
:105760000028FBD09B48052102684902511889692D
:105770000027009162E0780100990390085A010522
:105780005AD01999002901D0884255D105997A003B
:105790008B69511C595C9A5C0902891889B20D9178
:1057A000890749D002220599FBF7ECFD002804D0B7
:1057B0001998002840D0652072E7002008A9C85534
:1057C0001C98C00718D0179880690078C00613D5B8
:1057D0000D98C00710D00120C8550543009A0398C2
:1057E00080184088159A904206D91590009A03981F
:1057F000105A0005000D14901C9880071CD51798AE
:1058000080690078800617D50D9800E084E0800755
:1058100012D50220CA5D05430243CA550099039878
:10582000401840881599884206D915900099039828
:10583000085A0005000D14907F1CFFB265480068EF
:10584000A030037BBB4296D8002D65D01898007A13
:1058500000065FD45F48016805204002081881698E
:1058600000201BE042018E5A360515D0AE070BD53D
:1058700056183669B7070DD408AF3F5CBF0703D58C
:10588000360701D546200BE7EE0705D05218127CEB
:10589000D20701D0432003E7401CC0B28342E1D8C5
:1058A0001598C01E86B20498864200D90646A807FD
:1058B0000FD520220020149903F074FC12900028C8
:1058C0007DD0F01C82B20021129804F0ADFD0028BA
:1058D00011D1E80720D020220020149903F062FCA7
:1058E0000B90002807D0F01C82B200210B9804F026
:1058F0009BFD002810D08020FEF7D4FA12980028D3
:1059000002D0002103F0AAFC0B98002802D000214D
:1059100003F0A4FC6420C3E6A1690A98069A08185B
:10592000249903F020FA16988078012801D1049870
:10593000E083002D46D0274B052019684002081847
:105940008169002008AA0CE04301CF5A3F0506D028
:105950005F18BC463B69175C3B4367463B61401C94
:10596000C0B21C4B1B68A0331B7B8342ECD8A8073A
:105970000DD512980090F01C82B221461C310220F5
:10598000A369FCF72FFC0220129907F0E7F9E8075A
:1059900018D00B980090F61C2146B2B21C310120A1
:1059A000A369FCF71FFC1398002805D00B988021F1
:1059B000C07C08430B99C87401200B9900E005E0F6
:1059C00007F0CCF900206BE6422069E68020FEF764
:1059D00069FA9FE7CC03002003280000F0B5846833
:1059E000083015E0258D8D4203D114601860012028
:1059F000F0BD26461C602036256A06E0AF8B8F423C
:105A000002D102201560F0BD2D68B542F6D12468A0
:105A10008442E7D10020F0BD10B50B6A203106E0CA
:105A20009C8B844202D10020136010BD1B688B4206
:105A3000F6D1412010BD000010B5094AE3231268D9
:105A4000DB00D2189368083206E01C8D844202D134
:105A500000200B6010BD1B689342F6D1412010BDA1
:105A6000CC030020F8B5204E04463568AE3500F072
:105A700069FA2070000A607000F064FAA070000AF1
:105A8000E07000F05FFAC2B28004830E2271002140
:105A900063710846275C401C7918C0B289B2062899
:105AA000F8D30029E3D02078FF280CD16078FF28B4
:105AB00009D1A078FF2806D1E078FF2803D1FF2A7A
:105AC00001D1FF2BD3D00622691D204603F047F9F0
:105AD0000028CCD0316806222046783103F03FF907
